:020000040800F2
:100000000000022031360008BF210008C12100088D
:10001000C3210008C5210008C72100080000000016
:10002000000000000000000000000000C9210008DE
:10003000CB21000800000000CD210008CF210008DE
:1000400081360008813600088136000881360008B4
:1000500081360008813600088136000881360008A4
:100060008136000881360008813600088136000894
:100070008136000881360008813600088136000884
:100080008136000881360008813600088136000874
:100090008136000881360008813600088136000864
:1000A0008136000881360008813600088136000854
:1000B0008136000881360008813600088136000844
:1000C0008136000881360008813600088136000834
:1000D0008136000881360008813600088136000824
:1000E0008136000881360008813600088136000814
:1000F0008136000881360008813600088136000804
:1001000081360008DD2100088136000881360008AC
:10011000ED21000881360008FD2100080D220008AD
:1001200081360008813600088136000881360008D3
:1001300081360008813600088136000881360008C3
:1001400081360008813600088136000881360008B3
:1001500081360008813600088136000881360008A3
:100160008136000881360008813600088136000893
:100170008136000881360008813600080000000042
:080180008136000881360008F9
:1001880010B5054C237833B9044B13B10448AFF3C9
:1001980000800123237010BD100000200000000023
:1001A800CC3600080C4B43B10C480D4910B5AFF3E1
:1001B80000800C48036823B910BD0A48036833B9A6
:1001C8007047094B002BF7D0BDE810401847064B85
:1001D800002BF5D0184700BF00000000CC360008FF
:1001E80014000020100000200000000053B94AB994
:1001F800002908BF00281CBF4FF0FF314FF0FF3027
:1002080000F07AB9ADF1080C6DE904CE00F006F8FB
:10021800DDF804E0DDE9022304B070472DE9F0477A
:100228008C460D460446089E002B51D18A4217463B
:100238006DD9B2FA82FEBEF1000F0BD0CEF1200CC0
:1002480001FA0EF520FA0CFC02FA0EF74CEA050C3E
:1002580000FA0EF44FEA174A250CBCFBFAF81FFA0D
:1002680087F90AFB18CC45EA0C4508FB09F3AB42B1
:100278000AD9ED1908F1FF3280F02381AB4240F230
:100288002081A8F102083D44ED1AA4B2B5FBFAF0AA
:100298000AFB105544EA054400FB09F9A14509D9B0
:1002A800E41900F1FF3380F00A81A14540F207818B
:1002B80002383C44A4EB090440EA08400021002E1F
:1002C80061D024FA0EF4002334607360BDE8F0872F
:1002D8008B4207D9002E54D0002186E82100084619
:1002E800BDE8F087B3FA83F1002940F08E80AB4275
:1002F80002D3824200F2FA80841A65EB03050120DA
:10030800AC46002E3FD086E81010BDE8F08712B941
:100318000127B7FBF2F7B7FA87FEBEF1000F34D119
:10032800EB1B3A0C1FFA87FC0121B3FBF2F8250CF2
:1003380002FB183345EA03450CFB08F3AB4207D927
:10034800ED1908F1FF3002D2AB4200F2D1808046AD
:10035800ED1AA3B2B5FBF2F002FB105543EA0544CF
:100368000CFB00FCA44507D9E41900F1FF3302D2C5
:10037800A44500F2B8801846A4EB0C0440EA0840F3
:100388009DE731463046BDE8F087CEF1200405FAF6
:100398000EF307FA0EF720FA04F83A0C25FA04F4DB
:1003A80048EA0308B4FBF2F14FEA184502FB11448E
:1003B8001FFA87FC45EA044501FB0CF3AB4200FA3F
:1003C8000EF409D9ED1901F1FF3080F08A80AB42B3
:1003D80040F2878002393D44EB1A1FFA88F5B3FBD7
:1003E800F2F002FB103345EA034500FB0CF3AB4285
:1003F80007D9ED1900F1FF386FD2AB426DD9023839
:100408003D44EB1A40EA01418FE7C1F1200722FA87
:1004180007F88B4005FA01F448EA030320FA07FEBF
:100428004FEA134CFD404EEA040EB5FBFCF94FEAC7
:100438001E440CFB19551FFA83F844EA054509FBCD
:1004480008F4AC4202FA01F200FA01FA08D9ED18F0
:1004580009F1FF3043D2AC4241D9A9F102091D4448
:100468002D1B1FFA8EFEB5FBFCF00CFB10554EEA57
:10047800054400FB08F8A04507D9E41800F1FF354A
:1004880029D2A04527D902381C4440EA0940A4EBE8
:100498000804A0FB02894C45C6464D4615D312D028
:1004A80056B1BAEB0E0364EB050404FA07F7CB4028
:1004B8001F43CC40376074600021BDE8F0871846C0
:1004C800F8E69046E0E6C245EAD2B8EB020E69EBE0
:1004D80003050138E4E72846D7E7404691E7814617
:1004E800BEE7014678E702383C4445E7084608E796
:1004F800A8F102083D442BE7704700BF836B1A68D8
:10050800D36B43F48073D363704770B582B00446ED
:1005180000230193006802F01DF9054610B1284632
:1005280002B070BD206802F028F9064610B3002317
:10053800A3642E46DEB9019B5A1C01924FF6FF7246
:10054800934244D00021206802F02EF9002841D1BE
:100558000021206802F040F9064600283DD100211C
:10056800206801F034FFC00FE4D00646E2E700231C
:100578006364D4E70123A3640546EDB9019B5A1CC3
:1005880001924FF6FF7293422AD00021206802F0B0
:100598000BF905460028C2D14FF08041206802F0CF
:1005A8001BF905460028BAD10021206801F00FFF89
:1005B800C30FE2D01D46E0E710F0804F03D10023BF
:1005C80063643546ABE7012363643546A7E74FF01C
:1005D8008075A4E74FF08055A1E74FF080559EE75E
:1005E8004FF080759BE770B50546866A002405E0E4
:1005F800286801F0C7FE46F824000134072CF7D913
:10060800AB6A2033AB62002070BD70B50546066A40
:10061800002405E006EB8401286801F0B6FE0134E9
:10062800072CF7D92B6A20332B62002070BD70B5D8
:1006380071B10D460446016D0904006802F027F9FE
:10064800064638B90021206801F0C1FE286001E0A3
:100658004FF00066304670BDF0B587B0044651B122
:1006680015461E460A4690F83430DBB2012B08D0F6
:10067800022007B0F0BD836B43F000638363012061
:10068800F7E700238363AB19C16D8B4205D9836BF0
:1006980043F0007383630120EBE7032380F83430D1
:1006A80003680021D9620068C36B43F49573C36380
:1006B800E36B2A48D863E36B2948D864E36B196570
:1006C80021687702BB088031E06B01F0ABF80122AA
:1006D800244B1A60636C934200D06D024FF0FF33D5
:1006E800009301979023029302230393002304931A
:1006F800012305936946206801F070FF4FF40071EB
:10070800206801F07DFF034698B9012E1CD9822389
:1007180023632946206801F0A3FFE0B1236840F273
:10072800FF529A63A36B1843A063012084F8340036
:100738009FE7226840F2FF519163A26B1343A363C2
:10074800012084F8340094E7812323632946206834
:1007580001F06EFFE1E700208BE700BF8F0800087B
:10076800A10C00088C8525422DE9F04186B004468D
:1007780059B115461E460F4690F83430DBB2012BAE
:1007880009D0022006B0BDE8F081836B43F0006316
:1007980083630120F6E7002383639319C26D9342B4
:1007A80031D8032380F8343003680022DA62016804
:1007B800CB6B43F01A03CB63036C2E49D963036CEC
:1007C8002D49D964036C1A65436C012B00D06D0266
:1007D8004FF40071206801F013FF0346C8B9012ED9
:1007E80022D9A02323632946206801F069FF10B3AA
:1007F800236840F2FF529A63A36B1843A063012059
:1008080084F83400BEE7836B43F0007383630120F0
:10081800B8E7226840F2FF519163A26B1343A363C8
:10082800012084F83400ADE790232363294620682B
:1008380001F02EFFDBE74FF00108104BC3F80080F2
:1008480022687602B30880323946206C00F0EAFF4D
:100858004FF0FF33009301969023029300250395F0
:100868000495CDF814806946206801F0B7FE284643
:1008780088E700BF05050008A10C00088C85254203
:1008880070477047704710B5846B236B822B0FD06D
:100898002268D36A23F00803D362236840F2FF5228
:1008A8009A63012384F834302046FFF7EAFF10BD2D
:1008B800206801F01DFF03460028E9D0A26B13430E
:1008C800A3632046FFF7DEFFE2E7704730B4436ECC
:1008D8009A0F0A70C3F383624A70C3F301638B7083
:1008E80090F86630CB7090F865300B7190F86430F2
:1008F8004B7190F86B301B01CB80B0F86A20CB8825
:100908009BB2C2F303142343CB8002F00F020A7296
:1009180090F86930DA094A72C3F380128A72C3F315
:100928004012CA72C3F300120A7300224A73426C5F
:10093800002A40F092809B0203F440630B61836EAF
:100948000A699B0003F47F7313430B61C36E0A6942
:1009580042EA93720A61C3F3C2620A75C3F302637F
:100968004B75C26EC2F30743C2F342548C75C2F38F
:100978008242CA755B0003F006030B76C26EC2F3AF
:1009880007230C7EC2F3C03222430A760A69013279
:1009980042650C7E023402FA04F444650A7AD5B240
:1009A8000122AA408265520A02FB04F2C2654FF492
:1009B80000720266C3F380124A765B0003F07E037E
:1009C8008B76C36E8A7EC3F3C01422438A7603F003
:1009D8007F03CB76036F1A0EDC0F0C77C3F34174D9
:1009E8004C77C3F382638B77930003F00C03CB77C8
:1009F800036FCA7FC3F381542243CA77C3F34052BB
:100A080081F82020002281F82120C3F3004381F8D7
:100A18002230036FC3F3C03481F82340C3F380341A
:100A280081F82440C3F3403481F82540C3F30034EF
:100A380081F82640C3F3812481F82740C3F30123BA
:100A480081F82830036FC3F3460381F82930012366
:100A580081F82A30104630BC7047012A0CD0036850
:100A680040F2FF529A63836B43F080538363012201
:100A780080F834201046EEE7836E1B0403F47C13E1
:100A88000B6190F86F200B6943EA02230B610A6936
:100A980090F86E3013430B6190F86D300C69013497
:100AA800A4024465C4654FF400728265026681E75A
:100AB80070B590B004460123ADF81230006801F01B
:100AC8006DFC20B94FF08065284610B070BD636C8E
:100AD800032B1AD0206801F098FE05460028F3D1B0
:100AE8000021206801F073FC60670421206801F090
:100AF8006EFCA0670821206801F069FCE0670C2102
:100B0800206801F064FCC4F88000636C032B07D0F4
:100B18000DF11201206801F0A2FE05460028D3D18C
:100B2800636C032B1DD0BDF81210216509042068E1
:100B380001F080FE05460028C6D10021206801F09A
:100B480046FC60660421206801F041FCA06608218B
:100B5800206801F03CFCE0660C21206801F037FCBD
:100B680020670421206801F032FC000DE06405A92B
:100B78002046FFF7ABFE226D12040023206801F027
:100B8800D1FD054600289FD1234653F8106B93E802
:100B980007008DE80700043494E80E00304601F0A1
:100BA800D5FB91E770B58AB00546002404940594F6
:100BB800069407940894762309930AAB13E907006F
:100BC8008DE8070004AB0ECB286801F0BFFB124E7E
:100BD8003460286801F0DEFB01233360022000F056
:100BE8006BFF2846FFF791FC40B10346012085F8CA
:100BF8003400AA6B1343AB630AB070BD2846FFF7F5
:100C080057FF034630B1012085F83400AA6B13431F
:100C1800AB63F1E70020EFE7A0802542A8B110B54B
:100C2800044690F8343063B1032384F83430204606
:100C3800FFF7B8FF0020A0632063012384F8343055
:100C480010BD037702F0A4FBEEE701207047436C68
:100C58000B60836C4B60C36C8B60036DCB60436D22
:100C68000B61836D4B61C36D8B61036ECB6100209B
:100C7800704710B582B0044602A9002341F8043D2C
:100C8800FFF7D5FC18B10346A26B1343A363019881
:100C9800C0F3432002B010BD10B5846BE36B5B6DED
:100CA800012B07D0236C5B6D012B03D02046FFF787
:100CB800E9FD10BD236840F2FF529A632268D36BA6
:100CC80023F49D73D363A36B43F08043A36320464F
:100CD800FFF7CFFF0538C0B2012803D9012384F8F4
:100CE8003430E3E7206801F003FDA36B1843A063E9
:100CF800F4E710B5846B236C0BB100232364E36B1A
:100D080003B110BD2046FFF7B4FF0023A3630123FE
:100D180084F834300538C0B29842F2D8206801F01F
:100D2800E7FCA36B1843A063A36B1BB92046FFF72E
:100D3800A9FDE6E72046FFF7C8FD10BD10B5846B96
:100D4800E36B0BB10023E363236C03B110BD2046B2
:100D5800FFF78FFF0023A363012384F8343005389D
:100D6800C0B29842F2D8206801F0C2FCA36B1843C5
:100D7800A063A36B1BB92046FFF784FDE6E7204676
:100D8800FFF7A3FD10BD000010B5044603685A6BB9
:100D980012F4807F62D04FF480729A630268D36B3A
:100DA80023F44E7323F00203D363036B13F0080F8D
:100DB8002AD0036B13F0020F03D1036B13F0200F3B
:100DC80004D0206801F094FC034690B9236840F2EF
:100DD800FF529A63012384F83430236B13F0010F18
:100DE80003D1236B13F0020F0AD02046FFF749FD09
:100DF80010BDA26B1343A3632046FFF743FDE5E74D
:100E08002046FFF73DFD10BD036B13F0800F0BD09C
:100E1800036B13F0200F08D1236B13F0010F03D1DC
:100E2800236B13F0020F0DD010BD006801F060FCB9
:100E380003460028F0D0A26B1343A3632046FFF7B4
:100E480021FDE9E72268D36A23F00803D36201236E
:100E580084F834302046FFF713FD10BD5A6B12F4A6
:100E6800804F4BD15A6B12F4004F4DD1596B40F261
:100E78003A221142D8D05A6B12F0020F03D0826B7B
:100E880042F0020282635A6B12F0080F03D0A26B81
:100E980042F00802A2635A6B12F0200F03D0A26B33
:100EA80042F02002A2635A6B12F0100F03D0A26B1B
:100EB80042F01002A2635A6B12F4007F03D0A26BB7
:100EC80042F00802A26340F2FF729A632268D36B71
:100ED80023F44E7323F00203D363236B13F0800FC4
:100EE8002ED0236CB3B11C4A1A65206C00F0D4FCD8
:100EF800002899D0206CFFF7FCFE10BD4FF480420B
:100F08009A63FFF782FB10BD4FF400429A63FFF724
:100F18006AFB10BDE36B53B1104A1A65E06B00F031
:100F2800BBFC002880D0E06BFFF708FF10BD002352
:100F3800A363012384F834302046FFF7C6FC10BDB4
:100F4800236B13F0080F3FF46FAF012384F834309C
:100F58002046FFF797FC67E7FB0C0008450D0008E3
:100F680008B50421034800F0CFF908B9002008BDEE
:100F7800012008BD0000024038B504460268D36865
:100F880023F0A003D36000F091FD05462368DB68D9
:100F980013F0200F07D100F089FD401BB0F57A7FD0
:100FA800F4D9032038BD002038BD38B50368DA68A5
:100FB80012F0400F01D0002038BD04464FF0FF3238
:100FC800DA6000F073FD05462368DB6813F0400F14
:100FD80007D100F06BFD401BB0F57A7FF4D90320F0
:100FE80038BD002038BD38B500285CD00446437FA2
:100FF800002B41D0022363772368CA225A622368F0
:1010080053225A622046FFF7D0FF0546002837D101
:101018002268936823F4E00323F040039360216877
:101028008A686368206903436069034313438B60DC
:101038002368E2681A6122681369A16843EA0143D8
:1010480013612268D36823F08003D36023689B6808
:1010580013F0200F1BD02268136C23F48023136431
:101068002268136CA1690B4313642368FF225A6238
:1010780001236377284638BD037702F01DF9B9E7E5
:101088002368FF225A62042363770125F2E720468A
:10109800FFF772FF0028DED02368FF225A6204237C
:1010A80063770125E6E70125E4E7000008B5134664
:1010B8000A4601460248FFF7CFFA00B1012008BDF1
:1010C8006005002008B513460A4601460248FFF7A6
:1010D8004BFB00B1012008BD6005002008B503489E
:1010E800FFF7C7FD043818BF012008BD60050020C0
:1010F80008B501460148FFF7AAFD08BD60050020B4
:1011080000B583B001238DF80730FFF729FF10B928
:1011180000238DF807309DF8070003B05DF804FB45
:1011280008B5FFF7EDFF012801D0012008BD0248EE
:10113800FFF774FD08BD00BF60050020F0B583B05F
:1011480000244BE04FEAD40E0EF1080E50F82E2082
:1011580004F00706B6000F27B74022EA07020F6916
:1011680007FA06F6324340F82E2046E0072600E04C
:10117800002606FA0EF6324302335E4E46F8232066
:101188005D4B1A68EB4302EA03064F6817F4803F89
:1011980001D045EA0206584A1660526803EA020678
:1011A8004F6817F4003F01D045EA0206524A5660DC
:1011B800926803EA02064F6817F4801F01D045EAD7
:1011C80002064D4A9660D26813404E6816F4001F16
:1011D80001D045EA0203484AD36001340F2C00F2DB
:1011E80086800123A3400A6803EA0205AB42F4D1D2
:1011F8004A68022AA6D0122AA4D006684FEA440EEA
:10120800032202FA0EF2D24316404F6807F0030792
:1012180007FA0EF73E4306604E68771E012F03D982
:10122800112E01D0122E0FD186681640CF6807FA0A
:101238000EF73E438660466826EA03034E68C6F307
:101248000016A64033434360C3681A408B6803FA0C
:101258000EF31A43C2604B6813F0805FBDD00023C1
:101268000193264B5A6C42F480425A645B6C03F437
:1012780080430193019BA3089E1C1E4A52F8262016
:1012880004F003064FEA860E0F2606FA0EF622EA47
:1012980006021B4FB8423FF46BAF1A4EB0421AD049
:1012A80006F58066B04218D006F58066B04216D0C2
:1012B80006F58066B04214D006F58066B04212D0BA
:1012C80006F58066B04210D006F58066B0423FF45D
:1012D8004DAF08264DE701264BE7022649E70326CE
:1012E80047E7042645E7052643E7062641E703B016
:1012F800F0BD00BF00380140003C0140003802400A
:1013080000000240000402400369194201D1002094
:1013180070470120704712B90904816170478161E3
:10132800704700000F49D1F8883043F47003C1F8C2
:1013380088300D4B1A6842F001021A60002098604C
:101348001A6822F0847222F480321A60074A5A60BE
:101358001A6822F480221A60D8604FF000638B600C
:10136800704700BF00ED00E0003802401030002454
:1013780008B5032000F0A4FE002211466FF00B0010
:1013880000F0B0FE002211466FF00A0000F0AAFE3D
:10139800002211466FF0090000F0A4FE0022114659
:1013A8006FF0040000F09EFE002211466FF003006B
:1013B80000F098FE002211466FF0010000F092FE46
:1013C800002211464FF0FF3000F08CFE08BD704738
:1013D800704770477047704710B5044603681A692C
:1013E80012F0020F11D0DA6812F0020F0DD06FF070
:1013F80002021A610123037603689B6913F0030F45
:1014080070D0FFF7E6FF0023237623681A6912F0ED
:10141800040F12D0DA6812F0040F0ED06FF0040235
:101428001A610223237623689B6913F4407F5FD0F7
:101438002046FFF7CEFF0023237623681A6912F0AF
:10144800080F12D0DA6812F0080F0ED06FF00802F9
:101458001A61042323762368DB6913F0030F4ED047
:101468002046FFF7B6FF0023237623681A6912F097
:10147800100F12D0DA6812F0100F0ED06FF01002B1
:101488001A61082323762368DB6913F4407F3DD073
:101498002046FFF79EFF0023237623681A6912F07F
:1014A800010F03D0DA6812F0010F36D123681A69E8
:1014B80012F0800F03D0DA6812F0800F34D123685D
:1014C8001A6912F0400F03D0DA6812F0400F32D1D7
:1014D80023681A6912F0200F03D0DA6812F0200F7F
:1014E80030D110BDFFF774FF2046FFF773FF8AE77E
:1014F8002046FFF76DFF2046FFF76CFF9BE720466D
:10150800FFF766FF2046FFF765FFACE72046FFF7C9
:101518005FFF2046FFF75EFFBDE76FF001021A612B
:101528002046FFF754FFC1E76FF080021A6120469A
:1015380001F092FDC3E76FF040021A612046FFF701
:101548004AFFC5E76FF020021A61204601F083FDCB
:10155800C7E700000368454A90424AD0B0F1804F7F
:1015680049D0A2F57C42904247D002F58062904271
:1015780045D002F58062904243D002F5784290420D
:1015880035D000221AB123F070034A681343374A52
:1015980090423AD0B0F1804F50D0A2F57C429042B0
:1015A8004ED002F5806290424CD002F580629042A3
:1015B8004AD002F57842904248D002F570529042E3
:1015C80046D002F58062904244D002F58062904293
:1015D80042D0A2F59832904240D002F58062904203
:1015E8003ED002F5806290420DD000220EE001222A
:1015F800C8E70122C6E70122C4E70122C2E70122A7
:10160800C0E70122BEE7012200E001221AB123F45B
:101618004073CA68134303608B68C3620B688362B4
:10162800124B984220D003F5806398421AD00023C9
:101638000BB10B6903630123436170470122E5E79E
:101648000122E3E70122E1E70122DFE70122DDE7EA
:101658000122DBE70122D9E70122D7E70122D5E7FA
:101668000122D3E70123E3E70123E1E7000001407A
:10167800A8B110B5044690F839305BB1022384F85C
:101688003930211D2068FFF765FF012384F83930C0
:10169800002010BD80F8383001F08CFFEEE7012003
:1016A8007047000030B583B00546036813F0050F96
:1016B80006D12B6813F0020F2ED1002003B030BDE5
:1016C8000022494B1A6000F0F1F90446474B1B68A9
:1016D80013F0006F06D000F0E9F9001B0228F5D9D5
:1016E8000320EBE76A68AB681B0743EA82133F4AAB
:1016F800C2F8843001223C4B1A6000F0D7F9044646
:101708003A4B1B6813F0006FD3D100F0CFF9001BE0
:101718000228F5D90320D1E700230193334B1A6C33
:1017280042F080521A641B6C03F080530193019BB2
:101738002F4A136843F48073136000F0B7F9044626
:101748002B4B1B6813F4807F06D100F0AFF9001B08
:101758000228F5D90320B1E7244B1B6F13F440731B
:1017680012D0EA6802F4407293420DD01F4B1A6FF0
:1017780022F440721F4901200860002008601A679F
:101788001B6F13F0010F13D1EB6803F44072B2F52D
:10179800407F1ED0154A936823F4F81393601349C9
:1017A8000B6FEA68C2F30B0213430B67002085E74F
:1017B80000F07CF904460D4B1B6F13F0020FE3D1C8
:1017C80000F074F9001B41F288339842F3D90320E2
:1017D80074E706498A6822F4F81223F0704323F468
:1017E800407313438B60DAE76800474200380240D1
:1017F80000700040400E474230B405682C6824F45D
:1018080080242C60046863608368402B05D00368DB
:1018180099600368DA6030BC704703689A600368AF
:10182800D960F8E738B5856D90F83440012C31D08F
:10183800012480F8344090F83540E4B2012C04D0FB
:10184800002380F83430022038BD0446022084F892
:101858003500002060652046FFF7CEFFE26D3F238C
:101868009340AB602268136843F016031360226844
:10187800536943F080035361236C23B122681368D2
:1018880043F0080313602268136843F001031360F0
:10189800002038BD022038BD90F83530DBB2022B6D
:1018A80003D08023436501207047052380F8353035
:1018B8000268136823F00103136000207047FEE7F5
:1018C80000B599B0002301932E4A116C41F0805164
:1018D8001164126C02F080520192019A02932A4A12
:1018E800116841F480411160126802F4804202924A
:1018F800029A0A220C9201220F9210211091119241
:101908000222129213931491C02315931692042362
:1019180017930CA800F0E4F838BB0F2307930021B5
:10192800089109910A910B9107A800F0F7FA00BBFA
:10193800022303934FF40073069303A8FFF7B2FE44
:10194800D8B900F097FB114BA3FB0030800900F0D9
:1019580007FC042000F01AFC002211464FF0FF306B
:1019680000F0C0FB19B05DF804FBA9210848FFF797
:10197800A6FFB7210648FFF7A2FFBE210448FFF7DC
:101988009EFF00BF0038024000700040D34D621037
:10199800FC36000808B500F063F8FFF791FF01F086
:1019A80035FD01F01FFC01F095FC01F0ADFD01F0E3
:1019B800D7FD01F0DDFC01F017FB01F061FCFEE74B
:1019C800104B5B7ADBB930B40E4B5D7AEDB2002474
:1019D8005C555D7A03EB85056860587A1844027295
:1019E8005A7AD2B2501CC0B2587230320A703A23B6
:1019F8004B702F238B70CC70204630BC7047012071
:101A0800704700BF2C00002008B50022FFF7D8FF60
:101A180008BD000010B504460E4B18784FF47A73D1
:101A2800B3FBF0F30C4A1068B0FBF3F000F098FB3E
:101A380068B90F2C01D9012010BD002221464FF0B2
:101A4800FF3000F04FFB054B1C60002010BD01204B
:101A580010BD00BF04000020000000200800002086
:101A680008B50B4B1A6842F400721A601A6842F4FF
:101A780080621A601A6842F480721A60032000F0CB
:101A88001FFB0020FFF7C6FFFFF772FC002008BD10
:101A9800003C0240034A1168034B1B780B44136057
:101AA800704700BF4000002004000020014B186868
:101AB800704700BF4000002038B50446FFF7F6FF26
:101AC8000546B4F1FF3F02D0044B1B781C44FFF7D6
:101AD800EDFF401B8442FAD838BD00BF0400002047
:101AE800002800F0BB8170B582B00446036813F08B
:101AF800010F3BD0A74B9B6803F00C03042B2CD0A1
:101B0800A44B9B6803F00C03082B21D06368B3F542
:101B1800803F4FD0B3F5A02F52D09E4B1A6822F4C5
:101B280080321A601A6822F480221A606368002BD7
:101B380050D0FFF7BBFF0546964B1B6813F4003FD8
:101B480014D1FFF7B3FF401B6428F5D903208AE1BD
:101B5800904B5B6813F4800FD8D08E4B1B6813F43E
:101B6800003F03D06368002B00F07A81236813F0EC
:101B7800020F55D0874B9B6813F00C0F3ED0854B56
:101B88009B6803F00C03082B33D0E368002B68D064
:101B98000122814B1A60FFF789FF05467D4B1B68C0
:101BA80013F0020F54D1FFF781FF401B0228F5D92B
:101BB800032058E1774A136843F480331360B5E78C
:101BC800744B1A6842F480221A601A6842F4803210
:101BD8001A60ABE7FFF76AFF05466E4B1B6813F404
:101BE800003FC3D0FFF762FF401B6428F5D90320EC
:101BF80039E1684B5B6813F4800FC6D1654B1B68ED
:101C080013F0020F04D0E368012B01D001202AE170
:101C1800604A136823F0F803216943EAC10313609B
:101C2800236813F0080F40D0636963B301225B4B4C
:101C38001A60FFF73BFF0546564B5B6F13F0020F28
:101C480033D1FFF733FF401B0228F5D903200AE1FF
:101C5800504A136823F0F803216943EAC10313606B
:101C6800DEE700224C4B1A60FFF720FF0546494B80
:101C78001B6813F0020FD3D0FFF718FF401B022890
:101C8800F5D90320EFE00022444B1A60FFF70EFF5E
:101C98000546404B5B6F13F0020F06D0FFF706FFB7
:101CA800401B0228F5D90320DDE0236813F0040F58
:101CB80079D0384B1B6C13F0805F33D1002301932C
:101CC800344B1A6C42F080521A641B6C03F0805338
:101CD8000193019B0125324B1B6813F4807F23D0AD
:101CE800A368012B34D0052B38D02A4B1A6F22F069
:101CF80001021A671A6F22F004021A67A368002B00
:101D080036D0FFF7D3FE0646224B1B6F13F0020FA7
:101D180048D1FFF7CBFE801B41F288339842F3D9B4
:101D28000320A0E00025D6E71D4A136843F480731A
:101D38001360FFF7BBFE0646194B1B6813F4807F40
:101D4800CED1FFF7B3FE801B0228F5D903208AE025
:101D5800104A136F43F001031367CFE70D4B1A6F57
:101D680042F004021A671A6F42F001021A67C5E7C7
:101D7800FFF79CFE0646074B1B6F13F0020F11D0AE
:101D8800FFF794FE801B41F288339842F3D9032071
:101D980069E000BF0038024000004742800E474219
:101DA80000700040E5B9A369002B5BD0304A926807
:101DB80002F00C02082A58D0022B17D000222D4B13
:101DC8001A60FFF773FE0446294B1B6813F0007F67
:101DD80042D0FFF76BFE001B0228F5D9032042E032
:101DE800234A136C23F080531364DCE70022214B51
:101DF8001A60FFF75BFE05461D4B1B6813F0007F5A
:101E080006D0FFF753FE401B0228F5D903202AE02D
:101E1800E369226A1343626A43EA8213A26A520898
:101E2800013A43EA0243E26A43EA0263104A536012
:101E38000122104B1A60FFF739FE04460C4B1B6851
:101E480013F0007F06D1FFF731FE001B0228F5D9F9
:101E5800032008E0002006E0002004E0012070478D
:101E6800012000E0002002B070BD0120FBE700BFA8
:101E78000038024060004742F8B5254B9B6803F0E4
:101E88000C03042B41D0082B01D02248F8BD204B6D
:101E98005A6802F03F025B6813F4800F12D01C4BA3
:101EA8005968C1F3881100231B48A1FB0001FEF704
:101EB8009DF9174B5B68C3F3014301335B00B0FB2B
:101EC800F3F0F8BD124B5B68C3F388131E46002776
:101ED8005C010025E41A65EB0705A90141EA946154
:101EE800A001001B61EB0501CB0043EA5073C4005D
:101EF800A01943EB07018B0243EA90538402204662
:101F080019460023FEF772F9D3E70348F8BD00BF6E
:101F1800003802400024F40040787D01002800F0D9
:101F28009D8070B504464F4B1B6803F00F038B422E
:101F380009D2CBB24B4A1370136803F00F039942CE
:101F480001D0012070BD236813F0020F17D013F0E1
:101F5800040F04D0444A936843F4E0539360236821
:101F680013F0080F04D0404A936843F46043936029
:101F78003D4A936823F0F003A068034393600D463D
:101F8800236813F0010F32D06368012B21D09A1E09
:101F9800012A25D9344A126812F0020F60D032495A
:101FA8008A6822F0030213438B60FFF77FFD064621
:101FB8002D4B9B6803F00C036268B3EB820F16D0BD
:101FC800FFF774FD801B41F288339842F0D9032053
:101FD80070BD254A126812F4003FE0D1012070BD9F
:101FE800214A126812F0007FD9D1012070BD1D4B23
:101FF8001B6803F00F039D4209D2EAB2194B1A700D
:102008001B6803F00F039D4201D0012070BD2368B7
:1020180013F0040F06D0144A936823F4E053E168E0
:102028000B439360236813F0080F07D00E4A936898
:1020380023F46043216943EAC1039360FFF71CFF5F
:10204800094B9B68C3F30313084AD35CD840084B79
:1020580018600020FFF7DEFC002070BD01207047EB
:10206800012070BD003C024000380240E436000800
:1020780000000020014B1868704700BF00000020D6
:1020880008B5FFF7F7FF044B9B68C3F38223034AA5
:10209800D35CD84008BD00BF00380240F4360008C1
:1020A80008B5FFF7E7FF044B9B68C3F34233034AC5
:1020B800D35CD84008BD00BF00380240F4360008A1
:1020C800074AD36823F4E0631B041B0C000200F4E6
:1020D800E060184340F0BF6040F40030D0607047C3
:1020E80000ED00E030B4164BDB68C3F30223C3F104
:1020F8000704042C28BF04241D1D062D17D9033BF3
:10210800012505FA04F4013C2140994005FA03F33E
:10211800013B1340194300280BDB0901C9B200F148
:10212800604000F5614080F8001330BC7047002320
:10213800E6E700F00F000901C9B2024B1954F4E7B1
:1021480000ED00E014ED00E0420900F01F0001235B
:1021580003FA00F0014B43F82200704700E100E069
:102168000138B0F1807F0AD2064B5860F021064A48
:1021780082F823100020986007221A607047012017
:10218800704700BF10E000E000ED00E0042805D033
:10219800054A136823F0040313607047024A136862
:1021A80043F004031360704710E000E0704708B57F
:1021B800FFF7FCFF08BD7047FEE7FEE7FEE7FEE716
:1021C80070477047704708B5FFF764FCFFF7EFFFEB
:1021D80008BD000008B50248FEF7D6FD08BD00BFDF
:1021E8006005002008B5024800F0D8FD08BD00BF12
:1021F8002005002008B50248FFF7EEF808BD00BF2B
:10220800E405002008B50248FFF7E6F808BD00BF5E
:10221800200600200C4B1B680C4AA2FB03235A0A19
:1022280041F2883303FB02F35A1E4BB1416B13464C
:1022380011F0800FF8D040F2FF53836300207047FD
:102248004FF00040704700BF00000020D34D6210DF
:10225800144B1B68144AA2FB03235A0A41F2883321
:1022680003FB02F35A1ECBB1416B134611F0450F25
:10227800F8D0436B13F0040F03D00423836318468C
:102288007047436B13F0010F04D140F2FF5383638F
:102298000020704701238363184670474FF00040C1
:1022A800704700BF00000020D34D6210104B1B6820
:1022B800104AA2FB03235A0A41F2883303FB02F3B4
:1022C8005A1E8BB1416B134611F0450FF8D0436B82
:1022D80013F0040F03D0042383631846704740F2B9
:1022E800FF538363002070474FF00040704700BFE2
:1022F80000000020D34D6210124B1B68124AA2FB4B
:1023080003235A0A41F2883303FB02F35A1EA3B18E
:10231800416B134611F0450FF8D0436B13F0040FCF
:1023280003D04023836304207047436B13F0400FAE
:1023380006D040238363002070474FF00040704769
:102348000020704700000020D34D621084B010B404
:1023580002AC84E80E00039A0B461343049A134315
:10236800059A1343069A1343079A1343426822F4C3
:10237800FD4222F07F021343436000205DF8044BC6
:1023880004B07047D0F8800070470B68C0F8803000
:10239800002070470323036000207047006800F0A6
:1023A800030070470B6883604B688A681343CA68E8
:1023B80013430A691343C26822F47F6222F00F02B2
:1023C8001343C360002070470069C0B2704782B0F1
:1023D80000230193143001440191019B186802B055
:1023E8007047000038B5524B1B68524CA4FB03439E
:1023F8005B0A02FB03F2531E002A63D0446B1A46A1
:1024080014F0450FF7D0436B13F0040F03D00423E7
:102418008363184638BD436B13F0010F03D00123C3
:102428008363184638BD0D460446FFF7CDFFA84222
:1024380001D0012038BD40F2FF53A363002120469C
:10244800FFF7C5FF3C4B0340002B3ED000283EDB86
:1024580010F0804F01D0402038BD10F0005F01D04F
:10246800802038BD10F0805F34D110F0006F34D177
:1024780010F0806F34D110F0807F34D110F4000F49
:1024880034D110F4800F34D110F4001F34D110F47B
:10249800801F34D110F4802F34D110F4003F34D190
:1024A80010F4803F34D110F4004F34D110F4804F31
:1024B80034D110F4005F34D110F0080F34D04FF449
:1024C800000038BD4FF0004038BD002038BD4FF047
:1024D800007038BD4FF4807038BD4FF4007038BDBF
:1024E8004FF4806038BD4FF4006038BD4FF4805021
:1024F80038BD4FF4005038BD4FF4804038BD4FF41C
:10250800004038BD4FF4003038BD4FF4802038BD4E
:102518004FF4002038BD4FF4801038BD4FF4001040
:1025280038BD4FF4800038BD4FF4803038BD00BF4F
:1025380000000020D34D621008E0FFFD70B5254B68
:102548001B68254CA4FB03435C0A41F2883303FB58
:1025580004F35C1E002B37D0456B234615F0450F5E
:10256800F7D0436B13F0040F03D00423836318469A
:1025780070BD436B13F0010F03D00123836318462A
:1025880070BD16460D460446FFF71EFFA84201D04F
:10259800012070BD40F2FF53A36300212046FFF7DE
:1025A80016FF10F4604F05D010F4804F06D04FF49A
:1025B800005070BD000C3080002070BD10F4004F3A
:1025C80005D04FF4805070BD4FF0004070BD4FF4FF
:1025D800803070BD00000020D34D62100B6843624C
:1025E8004B6883628B68CA6813430A6913434A6954
:1025F8001343C26A22F0F7021343C36200207047F4
:1026080030B587B005460191102402944023039306
:10261800002304934FF48063059301A9FFF7C2FEDA
:1026280041F2883221462846FFF7DCFE07B030BD6C
:1026380030B587B0054601911124029440230393D5
:10264800002304934FF48063059301A9FFF7AAFEC2
:1026580041F2883221462846FFF7C4FE07B030BD54
:1026680030B587B0054601911224029440230393A4
:10267800002304934FF48063059301A9FFF792FEAA
:1026880041F2883221462846FFF7ACFE07B030BD3C
:1026980030B587B00546019118240294402303936E
:1026A800002304934FF48063059301A9FFF77AFE92
:1026B80041F2883221462846FFF794FE07B030BD24
:1026C80030B587B00546019119240294402303933D
:1026D800002304934FF48063059301A9FFF762FE7A
:1026E80041F2883221462846FFF77CFE07B030BD0C
:1026F80030B587B00546002301930C24029440228C
:10270800039204934FF48063059301A9FFF74AFEEF
:10271800034A21462846FFF765FE07B030BD00BFD3
:1027280000E1F50530B587B005460192072402940B
:1027380040230393002304934FF48063059301A976
:10274800FFF730FE41F2883221462846FFF74AFE5D
:1027580007B030BD10B586B004460023019302933C
:10276800039304934FF48063059301A9FFF71AFEBE
:102778002046FFF74FFD06B010BD10B586B00446E1
:102788004FF4D57301930823029340230393002346
:1027980004934FF48063059301A9FFF703FE2046D5
:1027A800FFF7AAFD06B010BD30B587B00546019108
:1027B8003724029440230393002304934FF4806347
:1027C800059301A9FFF7EEFD41F28832214628461C
:1027D800FFF708FE07B030BD10B586B0044641F0DB
:1027E800004141F48011019129230293402303936E
:1027F800002304934FF48063059301A9FFF7D2FDEA
:102808002046FFF753FD06B010BD10B586B004464C
:102818000023019302220292C022039204934FF4F0
:102828008063059301A9FFF7BDFD2046FFF710FD62
:1028380006B010BD10B586B0044601910923029375
:10284800C0230393002304934FF48063059301A9E5
:10285800FFF7A8FD2046FFF7FBFC06B010BD70B5DA
:1028680086B005460E4600230193032402944022B5
:10287800039204934FF48063059301A9FFF792FD37
:10288800324621462846FFF759FE06B070BD30B5DE
:1028980087B0054601910D24029440230393002339
:1028A80004934FF48063059301A9FFF77BFD41F280
:1028B800883221462846FFF795FD07B030BD0268EB
:1028C800D36823F49073D3600268536923F001033B
:1028D8005361202380F83A30704790F83930DBB2E2
:1028E800212B01D0022070478368B3F5805F17D091
:1028F8000268036A591C01621B785360C38C9BB23F
:10290800013B9BB2C384DBB90268D36823F0800320
:10291800D3600268D36843F04003D3600020704757
:10292800036A02681B88C3F30803536003691BB971
:10293800036A02330362E1E7036A01330362DDE7F6
:10294800002070472DE9F04704460268136923F414
:102958004053C1680B4313610168CB6823F41643E5
:1029680023F00C0382680069024360690243E0694E
:1029780002431343CB602268536923F44073A1696F
:102988000B435361E369B3F5004F62D0D4F800807C
:10299800BB4B984500F01B8103F58063984500F018
:1029A8001681FFF76DFB00EB800000EB8000656887
:1029B800AD00B0FBF5F5B34FA7FB05356D092E014A
:1029C800FFF75EFB00EB800000EB80006568AD0060
:1029D800B0FBF5FAFFF754FB00EB800000EB80003A
:1029E8006568AD00B0FBF5F5A7FB05356D094FF03F
:1029F800640909FB15A52D013235A7FB05356D09BD
:102A080005F0F0053544FFF73BFB00EB800000EBD9
:102A180080006668B600B0FBF6F6FFF731FB00EB06
:102A2800800000EB800063689B00B0FBF3F0A7FB1D
:102A38000030400909FB10694FEA091909F1320908
:102A4800A7FB0937C7F343172F44C8F80870BDE838
:102A5800F087D4F8008003F1804303F510439845CC
:102A68005CD003F58063984558D0FFF709FB00EB6D
:102A7800800000EB800065686D00B0FBF5F5814FC4
:102A8800A7FB05356D092E01FFF7FAFA00EB800068
:102A980000EB800065686D00B0FBF5FAFFF7F0FA0F
:102AA80000EB800000EB800065686D00B0FBF5F579
:102AB800A7FB05356D094FF0640909FB15A5ED0065
:102AC8003235A7FB05356D096D0005F4F8753544F9
:102AD800FFF7D6FA00EB800000EB8000666876000E
:102AE800B0FBF6F6FFF7CCFA00EB800000EB8000B5
:102AF80063685B00B0FBF3F3A7FB03235B0909FBE7
:102B080013694FEAC90909F13209A7FB0937C7F365
:102B180042172F44C8F80870BDE8F087FFF7C0FADD
:102B280000EB800000EB800065686D00B0FBF5F5F8
:102B3800544FA7FB05356D092E01FFF7B1FA00EBDD
:102B4800800000EB800065686D00B0FBF5FAFFF7C8
:102B5800A7FA00EB800000EB800065686D00B0FB11
:102B6800F5F5A7FB05356D094FF0640909FB15A5B7
:102B7800ED003235A7FB05356D096D0005F4F875D4
:102B88003544FFF78DFA00EB800000EB80006668A3
:102B98007600B0FBF6F6FFF783FA00EB800000EB57
:102BA800800063685B00B0FBF3F3A7FB03235B09BA
:102BB80009FB13694FEAC90909F13209A7FB09376B
:102BC800C7F342172F44C8F80870BDE8F087FFF72D
:102BD80067FA00EB800000EB80006568AD00B0FB91
:102BE800F5F5284FA7FB05356D092E01FFF758FAB3
:102BF80000EB800000EB80006568AD00B0FBF5FAE3
:102C0800FFF74EFA00EB800000EB80006568AD002E
:102C1800B0FBF5F5A7FB05356D094FF0640909FB15
:102C280015A52D013235A7FB05356D0905F0F00511
:102C38003544FFF735FA00EB800000EB800066684A
:102C4800B600B0FBF6F6FFF72BFA00EB800000EBBE
:102C5800800063689B00B0FBF3F3A7FB03235B09C9
:102C680009FB13694FEA091909F13209A7FB09376A
:102C7800C7F343172F44C8F80870BDE8F08700BFB2
:102C8800001001401F85EB5158B310B5044690F869
:102C980039300BB3242384F839302268D36823F4FD
:102CA8000053D3602046FFF74DFE2268136923F4D2
:102CB800904313612268536923F02A035361226801
:102CC800D36843F40053D3600020E063202384F8E2
:102CD800393084F83A3010BD80F8383000F018FBED
:102CE800D8E701207047704708B50168CB6823F022
:102CF8004003CB60202380F83930FFF7F4FF002031
:102D080008BD704708B590F83A30DBB2222B01D0E5
:102D1800022008BD8368B3F5805F0FD003690BBB41
:102D2800836A5A1C8262026852681A70C38D9BB209
:102D3800013B9BB2C385F3B1002008BD826A0369D9
:102D480043B903685B68C3F308031380836A0233DB
:102D58008362EBE703685B68DBB21380836A013345
:102D68008362E3E7826A531C836203685B6803F04B
:102D78007F031370DAE70268D36823F49073D36093
:102D88000268536923F001035361202380F83A3025
:102D9800FFF7B7FF002008BD7047000010B50446D4
:102DA80002681368D168526913F00F0005D113F057
:102DB800200F02D011F0200F53D1002867D012F055
:102DC800010202D111F4907F61D013F0010F06D0F7
:102DD80011F4807F03D0E06B40F00100E06313F052
:102DE800040F04D01AB1E06B40F00200E06313F066
:102DF800020F04D01AB1E06B40F00400E06313F056
:102E0800080F04D01AB1E26B42F00802E263E26BE9
:102E1800002A48D013F0200F02D011F0200F24D13F
:102E280023685B6903F04003E26B12F0080F00D1DE
:102E38003BB32046FFF743FD23685A6912F0400F61
:102E48001BD05A6922F040025A61636B8BB11A4A4F
:102E58001A65606BFEF720FD28B3606B036D984719
:102E680010BD2046FFF74EFF10BD2046FFF74AFF72
:102E7800D6E72046FFF790FF10BD2046FFF78CFFEE
:102E880010BD2046FFF788FF0023E36310BD13F051
:102E9800800F02D011F0800F06D113F0400F02D03E
:102EA80011F0400F04D110BD2046FFF716FD10BDEC
:102EB8002046FFF719FFF6E7C52E000808B5806B16
:102EC8000023C385C384FFF767FF08BD002800F00F
:102ED800828038B5044690F83D30002B41D0242339
:102EE80084F83D302268136823F001031360FFF76C
:102EF800C7F83A4BA3FB00239B0C22685360216858
:102F08006568374A954231D801330B622168636896
:102F1800334A934234D85B00B0FBF3F0C0F30B03A1
:102F2800032B00D80420C8612268E369216A0B4397
:102F3800136022682369E1680B4393602268636920
:102F4800A1690B43D3602268136843F0010313603F
:102F580000202064202384F83D30206384F83E005C
:102F680038BD80F83C3000F05FF9B8E74FF496724E
:102F780002FB03F31B4AA2FB03239B090133C4E7AB
:102F8800A5688DB903EB4302B0FBF2F2C2F30B0262
:102F9800B2FA82F25209E2B995B903EB4303B0FBE6
:102FA800F3F040F40040BEE703EB830202EB820239
:102FB800B0FBF2F2C2F30B02B2FA82F25209EAE76C
:102FC80003EB830303EB8303B0FBF3F040F44040CF
:102FD800A9E70120A7E70120704700BF83DE1B4354
:102FE800A0860100D34D621008B503490348FEF7D7
:102FF8000BFD034B187008BD480000200837000877
:103008004400002090F83830012B22D030B401223F
:1030180080F83820022380F839300468636823F088
:1030280070036360046863680D682B436360046819
:10303800A36823F08003A3600468A36849680B436E
:10304800A36080F83920002380F83830184630BC57
:1030580070470220704770477047000008B501228A
:10306800064B1A70FEF73AF820B9044A137803F0B1
:10307800FE031370014B187808BD00BF0C00002038
:1030880010B504460122074B1A70FEF749F810B133
:10309800044B187810BD2046FFF7E0FF014B18706D
:1030A800F6E700BF0C00002008B5FFF7D7FF08BD02
:1030B80010B5084611460024174A14601A46FDF751
:1030C800F5FF08B1012010BDFEF7F0FC0446124BD5
:1030D8001B6833B9FEF7EAFC001B47F22F539842EE
:1030E800F5D90D4B1B680BB9012010BD00220A4B06
:1030F8001A60FEF7DBFC0446FEF7D8FC001B47F21B
:103108002F53984205D8FDF7E9FF0028F4D1002095
:1031180010BD012010BD00BF3800002010B50846C2
:1031280011460024174A14601A46FDF7CBFF08B170
:10313800012010BDFEF7BAFC0446124B1B6833B9D8
:10314800FEF7B4FC001B47F22F539842F5D90D4BFC
:103158001B680BB9012010BD00220A4B1A60FEF74C
:10316800A5FC0446FEF7A2FC001B47F22F53984229
:1031780005D8FDF7B3FF0028F4D1002010BD0120C9
:1031880010BD00BF3C000020154B1B7813F0010F49
:1031980001D00320704710B588B0144603291CD805
:1031A800DFE801F002050C13002008B010BD6846E6
:1031B800FDF79EFF069B23600020F6E76846FDF7B3
:1031C80097FF079B23800020EFE76846FDF790FFF5
:1031D800079B5B0A23600020E7E70420E5E700BFC0
:1031E8000C00002008B50C480C4B03600C4B4360E6
:1031F80000238360C3604FF48042026143618361AE
:10320800C3610362FFF762FE00B908BD4C2105489F
:10321800FEF755FBF9E700BFAC040020005800405A
:10322800801A06001C3700080268124B9A4200D028
:10323800704700B587B04FF440630193122302939F
:103248000123039303230493042305930DEB030144
:103258000948FDF773FF00230093084B1A6C42F4EA
:1032680080021A641B6C03F480030093009B07B070
:103278005DF804FB0058004000040240003802409A
:1032880008B50A480A4B0360002343607F22826026
:10329800FF22C260036143618361FDF7A4FE00B9A8
:1032A80008BD4A210348FEF70AFBF9E7000500209C
:1032B80000280040283700080268044B9A4200D0D2
:1032C80070470122024B1A60FAE700BF002800404D
:1032D8003C0E474208B50B480B4B03604FF4E133F3
:1032E800436000238360C36003610C2242618361F1
:1032F800C361FFF7C9FC00B908BD4B210348FEF7BD
:10330800DEFAF9E720050020004C004034370008B9
:103318000268154B9A4200D0704710B586B0002459
:10332800009403F5F6331A6C42F400221A641B6CFD
:1033380003F400230093009B0323019302220292CB
:103348000122039204930823059301A90748FDF776
:10335800F5FE224621463420FEF7C4FE3420FEF74F
:10336800F3FE06B010BD00BF004C00400000024054
:10337800054B064A1A6000225A609A60DA601A61A0
:103388005A619A61704700BF60050020002C014017
:1033980002681B4B9A4200D07047F0B587B00024F2
:1033A800009403F586335A6C42F400625A645B6CED
:1033B80003F400630093009B4FF4885301930227A2
:1033C80002970394032604960C25059501A90D4838
:1033D800FDF7B4FE04230193029703940496059520
:1033E8000DEB03010848FDF7A9FE224621463120CE
:1033F800FEF778FE3120FEF7A7FE07B0F0BD00BF4C
:10340800002C014000080240000C0240F0B58DB0CD
:1034180000240194384B1A6B42F004021A631A6BA9
:1034280002F004020192019A02941A6B42F080029F
:103438001A631A6B02F080020292029A03941A6BC2
:1034480042F001021A631A6B02F001020392039A16
:1034580004941A6B42F010021A631A6B02F01002FD
:103468000492049A05941A6B42F002021A631A6BCA
:1034780002F002020592059A06941A6B42F00802BD
:103488001A631B6B03F008030693069B1B4D224629
:103498004FF410412846FDF73EFF194F22464FF4DE
:1034A80040713846FDF737FF40F20443079308940C
:1034B800099407A91348FDF741FE4FF410430793F9
:1034C8000126089609940A9407A92846FDF736FEAE
:1034D8004FF440730793089609940A9407A938464D
:1034E800FDF72CFE07960894099407A92846FDF7CE
:1034F80025FE0DB0F0BD00BF0038024000100240AC
:10350800000402400000024000B583B01148124B8D
:10351800036043F67F6343600023836040F2E73330
:10352800C360FEF7A5F850B90023009301936946DC
:103538000848FFF767FD38B903B05DF804FB472179
:103548000648FEF7BCF9EFE74E210448FEF7B7F945
:10355800F2E700BFE40500200010004040370008F3
:1035680000B583B01048114B03609F2343600023CC
:1035780083606323C360FEF77BF850B90023009390
:10358800019369460848FFF73DFD38B903B05DF877
:1035980004FB5D210648FEF792F9EFE76421044831
:1035A800FEF78DF9F2E700BF200600200014004066
:1035B8004037000800B583B00368184A934205D025
:1035C800174A934216D003B05DF804FB002100911E
:1035D800144B1A6C42F010021A641B6C03F01003AF
:1035E8000093009B0A463620FEF77CFD3620FEF746
:1035F800ABFDE8E7002101910A4B1A6C42F020026A
:103608001A641B6C03F020030193019B0A463720C0
:10361800FEF768FD3720FEF797FDD4E7001000405D
:103628000014004000380240DFF834D0002103E0E5
:103638000C4B5B58435004310B480C4B42189A42D0
:10364800F6D30B4A02E0002342F8043B094B9A42A6
:10365800F9D3FDF767FE00F011F8FEF79BF9704704
:10366800000002205C370008000000201000002045
:10367800100000205C060020FEE7000070B50D4E2B
:103688000D4CA41BA4100025A54209D10B4E0C4CCF
:1036980000F018F8A41BA4100025A54205D170BDA0
:1036A80056F8253098470135EEE756F82530984703
:1036B8000135F2E75437000854370008543700083A
:1036C80058370008F8B500BFF8BC08BC9E467047DC
:0C36D800F8B500BFF8BC08BC9E46704767
:1036E40000000000000000000102030406070809AE
:1036F40000000000010203045372632F6D61696EC0
:103704002E63000089300008B1300008B930000889
:1037140025310008913100085372632F6932632EFA
:10372400630000005372632F7274632E6300000001
:103734005372632F75736172742E63005372632F17
:0837440074696D2E63000000A2
:08374C00D8CAFF7F0100000054
:04375400AD010008BB
:0437580089010008DB
:10375C000024F40001000000100000000100000033
:040000050800363188
:00000001FF
