:020000040800F2
:1000000000000220E54E0008D7330008D93300086D
:10001000DB330008DD330008DF3300080000000098
:10002000000000000000000000000000E1330008B4
:10003000E333000800000000E5330008E733000860
:10004000354F0008354F0008354F0008354F000880
:10005000354F0008354F0008F3330008354F0008CE
:10006000FD330008354F0008354F0008354F0008B4
:10007000354F0008354F0008354F0008354F000850
:10008000354F0008354F0008354F0008354F000840
:10009000354F0008354F0008354F0008354F000830
:1000A000354F0008354F0008354F0008354F000820
:1000B000354F0008354F0008354F0008354F000810
:1000C000354F0008354F0008354F0008354F000800
:1000D000354F0008354F0008354F0008354F0008F0
:1000E00007340008354F0008354F0008354F000829
:1000F000354F0008354F0008354F0008354F0008D0
:10010000354F000815340008354F0008354F0008FA
:1001100025340008354F0008353400084534000800
:10012000354F0008354F0008354F0008354F00089F
:10013000354F0008354F0008354F0008354F00088F
:10014000354F0008354F0008354F0008354F00087F
:10015000354F0008354F0008354F0008354F00086F
:10016000354F0008354F0008354F0008354F00085F
:10017000354F0008354F0008354F000800000000DB
:08018000354F0008354F00085F
:1001900010B5054C237833B9044B13B10448AFF3C1
:1001A00000800123237010BDE0010020000000004A
:1001B000307600080C4B43B10C480D4910B5AFF335
:1001C00000800C48036823B910BD0A48036833B99E
:1001D0007047094B002BF7D0BDE810401847064B7D
:1001E000002BF5D0184700BF000000003076000853
:1001F000E4010020E001002000000000034613F8A5
:10020000012B002AFBD1181A0138704700000000AA
:1002100001F0FF01102A2BDB10F0070F08D010F8B7
:10022000013B013A8B422DD010F0070F42B3F6D1BB
:10023000F0B441EA012141EA014122F007047FF0D4
:1002400000070023F0E80256083C85EA010586EA2B
:10025000010685FA47F5A3FA87F586FA47F6A5FA67
:1002600087F68EB9EED1F0BC01F0FF0102F0070273
:1002700032B110F8013B013A83EA010313B1F8D11E
:100280000020704701387047002D06BF35460338FF
:10029000073815F0010F07D1013015F4807F02BF38
:1002A000013015F4C03F0130F0BC0138704700BF89
:1002B00081F0004102E000BF83F0004330B54FEA17
:1002C00041044FEA430594EA050F08BF90EA020F84
:1002D0001FBF54EA000C55EA020C7FEA645C7FEA17
:1002E000655C00F0E2804FEA5454D4EB5555B8BF3A
:1002F0006D420CDD2C4480EA020281EA030382EAAB
:10030000000083EA010180EA020281EA0303362D3C
:1003100088BF30BD11F0004F4FEA01314FF4801C0F
:100320004CEA113102D0404261EB410113F0004F21
:100330004FEA03334CEA133302D0524263EB4303D8
:1003400094EA050F00F0A780A4F10104D5F1200E76
:100350000DDB02FA0EFC22FA05F2801841F10001D1
:1003600003FA0EF2801843FA05F359410EE0A5F1A5
:1003700020050EF1200E012A03FA0EFC28BF4CF0D6
:10038000020C43FA05F3C01851EBE37101F000458C
:1003900007D54FF0000EDCF1000C7EEB00006EEB99
:1003A0000101B1F5801F1BD3B1F5001F0CD3490823
:1003B0005FEA30004FEA3C0C04F101044FEA44527A
:1003C00012F5800F80F09A80BCF1004F08BF5FEA01
:1003D000500C50F1000041EB045141EA050130BDE1
:1003E0005FEA4C0C404141EB010111F4801FA4F184
:1003F0000104E9D191F0000F04BF01460020B1FAD9
:1004000081F308BF2033A3F10B03B3F120020CDA10
:100410000C3208DD02F1140CC2F10C0201FA0CF0EE
:1004200021FA02F10CE002F11402D8BFC2F1200C53
:1004300001FA02F120FA0CFCDCBF41EA0C01904009
:10044000E41AA2BF01EB0451294330BD6FEA040452
:100450001F3C1CDA0C340EDC04F11404C4F120023D
:1004600020FA04F001FA02F340EA030021FA04F34F
:1004700045EA030130BDC4F10C04C4F1200220FAA6
:1004800002F001FA04F340EA0300294630BD21FAE4
:1004900004F0294630BD94F0000F83F4801306BFAA
:1004A00081F480110134013D4EE77FEA645C18BF9E
:1004B0007FEA655C29D094EA050F08BF90EA020F35
:1004C00005D054EA000C04BF1946104630BD91EA2D
:1004D000030F1EBF0021002030BD5FEA545C05D130
:1004E0004000494128BF41F0004130BD14F580046F
:1004F0003CBF01F5801130BD01F0004545F0FE41E3
:1005000041F470014FF0000030BD7FEA645C1ABF17
:10051000194610467FEA655C1CBF0B46024650EA4E
:10052000013406BF52EA033591EA030F41F400217A
:1005300030BD00BF90F0000F04BF0021704730B500
:100540004FF4806404F132044FF000054FF00001D5
:1005500050E700BF90F0000F04BF0021704730B596
:100560004FF4806404F1320410F0004548BF40426B
:100570004FF000013EE700BF42004FEAE2014FEAC0
:1005800031014FEA02701FBF12F07F4393F07F4F9B
:1005900081F06051704792F0000F14BF93F07F4FCD
:1005A000704730B54FF4607401F0004521F0004110
:1005B00020E700BF50EA010208BF704730B54FF096
:1005C00000050AE050EA010208BF704730B511F09B
:1005D000004502D5404261EB41014FF4806404F1D3
:1005E00032045FEA915C3FF4DCAE4FF003025FEA55
:1005F000DC0C18BF03325FEADC0C18BF033202EBDD
:10060000DC02C2F1200300FA03FC20FA02F001FA36
:1006100003FE40EA0E0021FA02F11444C1E600BFD5
:1006200070B54FF0FF0C4CF4E06C1CEA11541DBF88
:100630001CEA135594EA0C0F95EA0C0F00F0DEF853
:100640002C4481EA030621EA4C5123EA4C5350EA38
:10065000013518BF52EA033541F4801143F4801389
:1006600038D0A0FB02CE4FF00005E1FB02E506F01A
:100670000042E0FB03E54FF00006E1FB03569CF06F
:10068000000F18BF4EF0010EA4F1FF04B6F5007F75
:1006900064F5407404D25FEA4E0E6D4146EB0606E7
:1006A00042EAC62141EA55514FEAC52040EA5E5070
:1006B0004FEACE2EB4F1FD0C88BFBCF5E06F1ED81A
:1006C000BEF1004F08BF5FEA500E50F1000041EB51
:1006D000045170BD06F0004646EA010140EA0200FE
:1006E00081EA0301B4EB5C04C2BFD4EB0C0541EA20
:1006F000045170BD41F480114FF0000E013C00F335
:10070000AB8014F1360FDEBF002001F0004170BD58
:10071000C4F10004203C35DA0C341BDC04F1140471
:10072000C4F1200500FA05F320FA04F001FA05F2FD
:1007300040EA020001F0004221F0004110EBD370CA
:1007400021FA04F642EB06015EEA430E08BF20EAF6
:10075000D37070BDC4F10C04C4F1200500FA04F399
:1007600020FA05F001FA04F240EA020001F000412B
:1007700010EBD37041F100015EEA430E08BF20EA9E
:10078000D37070BDC4F1200500FA05F24EEA020EE6
:1007900020FA04F301FA05F243EA020321FA04F015
:1007A00001F0004121FA04F220EA020000EBD370CC
:1007B0005EEA430E08BF20EAD37070BD94F0000FCC
:1007C0000FD101F00046400041EB010111F4801F00
:1007D00008BF013CF7D041EA060195F0000F18BFB1
:1007E000704703F00046520043EB030313F4801FED
:1007F00008BF013DF7D043EA0603704794EA0C0FA7
:100800000CEA135518BF95EA0C0F0CD050EA4106BC
:1008100018BF52EA4306D1D181EA030101F0004139
:100820004FF0000070BD50EA410606BF1046194661
:1008300052EA430619D094EA0C0F02D150EA01366D
:1008400013D195EA0C0F05D152EA03361CBF1046AE
:1008500019460AD181EA030101F0004141F0FE414D
:1008600041F470014FF0000070BD41F0FE4141F4D1
:10087000780170BD70B54FF0FF0C4CF4E06C1CEAD1
:1008800011541DBF1CEA135594EA0C0F95EA0C0F86
:1008900000F0A7F8A4EB050481EA030E52EA033541
:1008A0004FEA013100F088804FEA03334FF0805562
:1008B00045EA131343EA12634FEA022245EA11158F
:1008C00045EA10654FEA00260EF000419D4208BF40
:1008D000964244F1FD0404F5407402D25B084FEAED
:1008E0003202B61A65EB03055B084FEA32024FF499
:1008F00080104FF4002CB6EB020E75EB030E22BFF6
:10090000B61A754640EA0C005B084FEA3202B6EBB5
:10091000020E75EB030E22BFB61A754640EA5C0064
:100920005B084FEA3202B6EB020E75EB030E22BFF4
:10093000B61A754640EA9C005B084FEA3202B6EBF5
:10094000020E75EB030E22BFB61A754640EADC00B4
:1009500055EA060E18D04FEA051545EA16754FEA16
:1009600006164FEAC30343EA52734FEAC2025FEA34
:100970001C1CC0D111F4801F0BD141EA00014FF0C3
:1009800000004FF0004CB6E711F4801F04BF014394
:100990000020B4F1FD0C88BFBCF5E06F3FF6AFAEB0
:1009A000B5EB030C04BFB6EB020C5FEA500C50F140
:1009B000000041EB045170BD0EF0004E4EEA1131C3
:1009C00014EB5C04C2BFD4EB0C0541EA045170BDCA
:1009D00041F480114FF0000E013C90E645EA060E0E
:1009E0008DE60CEA135594EA0C0F08BF95EA0C0F3C
:1009F0003FF43BAF94EA0C0F0AD150EA01347FF484
:100A000034AF95EA0C0F7FF425AF104619462CE75A
:100A100095EA0C0F06D152EA03353FF4FDAE1046BD
:100A2000194622E750EA410618BF52EA43067FF40E
:100A3000C5AE50EA41047FF40DAF52EA43057FF49E
:100A4000EBAE12E74FF0FF3C06E000BF4FF0010CA9
:100A500002E000BF4FF0010C4DF804CD4FEA410C0D
:100A60007FEA6C5C4FEA430C18BF7FEA6C5C1BD0DA
:100A700001B050EA410C0CBF52EA430C91EA030F5B
:100A800002BF90EA020F0020704710F1000F91EAB8
:100A9000030F58BF994208BF90422CBFD8176FEA86
:100AA000E37040F0010070474FEA410C7FEA6C5C54
:100AB00002D150EA013C07D14FEA430C7FEA6C5C5B
:100AC000D6D152EA033CD3D05DF8040B704700BF87
:100AD0008446104662468C461946634600E000BFD5
:100AE00001B5FFF7B7FF002848BF10F1000F01BDA7
:100AF0004DF808EDFFF7F4FF0CBF012000205DF872
:100B000008FB00BF4DF808EDFFF7EAFF34BF0120F6
:100B100000205DF808FB00BF4DF808EDFFF7E0FF8F
:100B200094BF012000205DF808FB00BF4DF808EDE0
:100B3000FFF7CEFF94BF012000205DF808FB00BF47
:100B40004DF808EDFFF7C4FF34BF012000205DF829
:100B500008FB00BF4FEA410C7FEA6C5C02D150EA0F
:100B6000013C0AD14FEA430C7FEA6C5C02D152EAA5
:100B7000033C02D14FF0000070474FF00100704776
:100B80004FEA410212F5001215D211D56FF47873B5
:100B9000B3EB625212D94FEAC12343F0004343EA58
:100BA000505311F0004F23FA02F018BF4042704733
:100BB0004FF00000704750EA013005D111F00040BD
:100BC00008BF6FF0004070474FF00000704700BF53
:100BD00053B94AB9002908BF00281CBF4FF0FF31A4
:100BE0004FF0FF3000F07AB9ADF1080C6DE904CE9A
:100BF00000F006F8DDF804E0DDE9022304B07047F8
:100C00002DE9F0478C460D460446089E002B51D135
:100C10008A4217466DD9B2FA82FEBEF1000F0BD0A0
:100C2000CEF1200C01FA0EF520FA0CFC02FA0EF7B8
:100C30004CEA050C00FA0EF44FEA174A250CBCFBEF
:100C4000FAF81FFA87F90AFB18CC45EA0C4508FBAD
:100C500009F3AB420AD9ED1908F1FF3280F0238184
:100C6000AB4240F22081A8F102083D44ED1AA4B243
:100C7000B5FBFAF00AFB105544EA054400FB09F9FC
:100C8000A14509D9E41900F1FF3380F00A81A1459B
:100C900040F2078102383C44A4EB090440EA0840D2
:100CA0000021002E61D024FA0EF40023346073601A
:100CB000BDE8F0878B4207D9002E54D0002186E88A
:100CC00021000846BDE8F087B3FA83F1002940F01F
:100CD0008E80AB4202D3824200F2FA80841A65EB26
:100CE00003050120AC46002E3FD086E81010BDE879
:100CF000F08712B90127B7FBF2F7B7FA87FEBEF10A
:100D0000000F34D1EB1B3A0C1FFA87FC0121B3FB17
:100D1000F2F8250C02FB183345EA03450CFB08F3F7
:100D2000AB4207D9ED1908F1FF3002D2AB4200F215
:100D3000D1808046ED1AA3B2B5FBF2F002FB10554C
:100D400043EA05440CFB00FCA44507D9E41900F173
:100D5000FF3302D2A44500F2B8801846A4EB0C047D
:100D600040EA08409DE731463046BDE8F087CEF1C5
:100D7000200405FA0EF307FA0EF720FA04F83A0CED
:100D800025FA04F448EA0308B4FBF2F14FEA1845E7
:100D900002FB11441FFA87FC45EA044501FB0CF3F2
:100DA000AB4200FA0EF409D9ED1901F1FF3080F0E1
:100DB0008A80AB4240F2878002393D44EB1A1FFA29
:100DC00088F5B3FBF2F002FB103345EA034500FB64
:100DD0000CF3AB4207D9ED1900F1FF386FD2AB42EB
:100DE0006DD902383D44EB1A40EA01418FE7C1F169
:100DF000200722FA07F88B4005FA01F448EA0303BA
:100E000020FA07FE4FEA134CFD404EEA040EB5FBF4
:100E1000FCF94FEA1E440CFB19551FFA83F844EA0B
:100E2000054509FB08F4AC4202FA01F200FA01FAA6
:100E300008D9ED1809F1FF3043D2AC4241D9A9F1EC
:100E400002091D442D1B1FFA8EFEB5FBFCF00CFBA6
:100E500010554EEA054400FB08F8A04507D9E418F0
:100E600000F1FF3529D2A04527D902381C4440EAB9
:100E70000940A4EB0804A0FB02894C45C6464D4638
:100E800015D312D056B1BAEB0E0364EB050404FA85
:100E900007F7CB401F43CC40376074600021BDE8AA
:100EA000F0871846F8E69046E0E6C245EAD2B8EB8D
:100EB000020E69EB03050138E4E72846D7E7404610
:100EC00091E78146BEE7014678E702383C4445E7B2
:100ED000084608E7A8F102083D442BE7704700BF29
:100EE000836B1A68D36B43F48073D363704770B518
:100EF00082B0044600230193006802F025FE0546F7
:100F000010B1284602B070BD206802F030FE0646DF
:100F100010B30023A3642E46DEB9019B5A1C019234
:100F20004FF6FF72934244D00021206802F036FE53
:100F3000002841D10021206802F048FE0646002822
:100F40003DD10021206802F0DFFBC00FE4D006464F
:100F5000E2E700236364D4E70123A3640546EDB907
:100F6000019B5A1C01924FF6FF7293422AD0002136
:100F7000206802F013FE05460028C2D14FF08041E0
:100F8000206802F023FE05460028BAD1002120681F
:100F900002F0BAFBC30FE2D01D46E0E710F0804F2D
:100FA00003D1002363643546ABE701236364354610
:100FB000A7E74FF08075A4E74FF08055A1E74FF009
:100FC00080559EE74FF080759BE770B50546866AB1
:100FD000002405E0286802F041FB46F824000134B3
:100FE000072CF7D9AB6A2033AB62002070BD70B517
:100FF0000546066A002405E006EB8401286802F035
:1010000030FB0134072CF7D92B6A20332B620020E8
:1010100070BD70B571B10D460446016D09040068DC
:1010200002F02FFE064638B90021206802F06CFB62
:10103000286001E04FF00066304670BDF0B587B023
:10104000044651B115461E460A4690F83430DBB2CC
:10105000012B08D0022007B0F0BD836B43F0006382
:1010600083630120F7E700238363AB19C16D8B42D3
:1010700005D9836B43F0007383630120EBE70323FF
:1010800080F8343003680021D9620068C36B43F4F0
:101090009573C363E36B2A48D863E36B2948D8642C
:1010A000E36B196521687702BB088031E06B01F0C2
:1010B00047FB0122244B1A60636C934200D06D02FF
:1010C0004FF0FF3300930197902302930223039381
:1010D00000230493012305936946206802F02CFC49
:1010E0004FF40071206802F085FC034698B9012E88
:1010F0001CD9822323632946206802F0ABFCE0B1AF
:10110000236840F2FF529A63A36B1843A063012047
:1011100084F834009FE7226840F2FF519163A26B8C
:101120001343A363012084F8340094E781232363ED
:101130002946206802F076FCE1E700208BE700BF3B
:101140006B120008171700088C8525422DE9F04125
:1011500086B0044659B115461E460F4690F8343005
:10116000DBB2012B09D0022006B0BDE8F081836B11
:1011700043F0006383630120F6E700238363931940
:10118000C26D934231D8032380F8343003680022C3
:10119000DA620168CB6B43F01A03CB63036C2E4910
:1011A000D963036C2D49D964036C1A65436C012B18
:1011B00000D06D024FF40071206802F01BFC034662
:1011C000C8B9012E22D9A02323632946206802F042
:1011D00071FC10B3236840F2FF529A63A36B18436B
:1011E000A063012084F83400BEE7836B43F00073F2
:1011F00083630120B8E7226840F2FF519163A26B3C
:101200001343A363012084F83400ADE790232363E4
:101210002946206802F036FCDBE74FF00108104B4E
:10122000C3F8008022687602B30880323946206C09
:1012300001F086FA4FF0FF3300930196902302935A
:10124000002503950495CDF814806946206802F0C6
:1012500073FB284688E700BFE10E00081717000857
:101260008C85254270477047704710B5846B236B9F
:10127000822B0FD02268D36A23F00803D36223683D
:1012800040F2FF529A63012384F834302046FFF77E
:10129000EAFF10BD206802F025FC03460028E9D0D3
:1012A000A26B1343A3632046FFF7DEFFE2E770471C
:1012B00030B4436E9A0F0A70C3F383624A70C3F36B
:1012C00001638B7090F86630CB7090F865300B71CD
:1012D00090F864304B7190F86B301B01CB80B0F804
:1012E0006A20CB889BB2C2F303142343CB8002F065
:1012F0000F020A7290F86930DA094A72C3F3801259
:101300008A72C3F34012CA72C3F300120A73002236
:101310004A73426C002A40F092809B0203F44063BF
:101320000B61836E0A699B0003F47F7313430B61A7
:10133000C36E0A6942EA93720A61C3F3C2620A7514
:10134000C3F302634B75C26EC2F30743C2F3425448
:101350008C75C2F38242CA755B0003F006030B76FC
:10136000C26EC2F307230C7EC2F3C03222430A7658
:101370000A69013242650C7E023402FA04F44465C3
:101380000A7AD5B20122AA408265520A02FB04F20F
:10139000C2654FF400720266C3F380124A765B00A6
:1013A00003F07E038B76C36E8A7EC3F3C0142243A0
:1013B0008A7603F07F03CB76036F1A0EDC0F0C776F
:1013C000C3F341744C77C3F382638B77930003F0CC
:1013D0000C03CB77036FCA7FC3F381542243CA77D0
:1013E000C3F3405281F82020002281F82120C3F36A
:1013F000004381F82230036FC3F3C03481F82340E7
:10140000C3F3803481F82440C3F3403481F825408D
:10141000C3F3003481F82640C3F3812481F82740C8
:10142000C3F3012381F82830036FC3F3460381F827
:101430002930012381F82A30104630BC7047012A38
:101440000CD0036840F2FF529A63836B43F08053E1
:101450008363012280F834201046EEE7836E1B047C
:1014600003F47C130B6190F86F200B6943EA0223AD
:101470000B610A6990F86E3013430B6190F86D3080
:101480000C690134A4024465C4654FF4007282659E
:10149000026681E770B590B004460123ADF81230C2
:1014A000006802F0E7F820B94FF08065284610B0D8
:1014B00070BD636C032B1AD0206802F0A0FB0546B8
:1014C0000028F3D10021206802F01EF96067042192
:1014D000206802F019F9A0670821206802F014F9C9
:1014E000E0670C21206802F00FF9C4F88000636CFB
:1014F000032B07D00DF11201206802F0AAFB05466C
:101500000028D3D1636C032B1DD0BDF812102165C8
:101510000904206802F088FB05460028C6D1002196
:10152000206802F0F1F860660421206802F0ECF80F
:10153000A0660821206802F0E7F8E0660C21206828
:1015400002F0E2F820670421206802F0DDF8000DC7
:10155000E06405A92046FFF7ABFE226D12040023CC
:10156000206802F0D9FA054600289FD1234653F897
:10157000106B93E807008DE80700043494E80E0030
:10158000304602F003F891E770B58AB005460024B2
:1015900004940594069407940894762309930AAB5F
:1015A00013E907008DE8070004AB0ECB286801F0B3
:1015B000EDFF124E3460286802F058F801233360C2
:1015C000022001F079FA2846FFF791FC40B103466A
:1015D000012085F83400AA6B1343AB630AB070BDD9
:1015E0002846FFF757FF034630B1012085F8340045
:1015F000AA6B1343AB63F1E70020EFE7A08025421D
:1016000000285DD010B5044602682E4B9A4204D0E3
:101610004FF49E712C4801F0C9F963683BB1B3F5F2
:10162000005F04D040F23D11274801F0BFF9A368E4
:101630003BB1B3F5806F04D04FF49F71224801F0A5
:10164000B5F9E3683BB1B3F5007F04D040F23F1138
:101650001D4801F0ABF9236953B1B3F5006F07D012
:10166000B3F5805F04D04FF4A071174801F09EF9E4
:1016700063693BB1B3F5804F04D040F24111124889
:1016800001F094F9A369FF2B0FD894F8343093B18B
:10169000032384F834302046FFF776FF0020A06350
:1016A0002063012384F8343010BD4FF4A171064843
:1016B00001F07CF9E9E72377204603F0A9FAE7E790
:1016C00001207047002C014048760008436C0B60F5
:1016D000836C4B60C36C8B60036DCB60436D0B619F
:1016E000836D4B61C36D8B61036ECB6100207047CE
:1016F00010B582B0044602A9002341F8043DFFF76B
:1017000088FC18B10346A26B1343A3630198C0F38E
:10171000432002B010BD10B5846BE36B5B6D012BF1
:1017200007D0236C5B6D012B03D02046FFF79CFD97
:1017300010BD236840F2FF529A632268D36B23F4F2
:101740009D73D363A36B43F08043A3632046FFF7ED
:10175000CFFF0538C0B2012803D9012384F8343003
:10176000E3E7206802F0BEF9A36B1843A063F4E737
:1017700010B5846B236C0BB100232364E36B03B1BE
:1017800010BD2046FFF7B4FF0023A363012384F8B4
:1017900034300538C0B29842F2D8206802F0A2F97D
:1017A000A36B1843A063A36B1BB92046FFF75CFD36
:1017B000E6E72046FFF77BFD10BD10B5846BE36BB9
:1017C0000BB10023E363236C03B110BD2046FFF788
:1017D0008FFF0023A363012384F834300538C0B29F
:1017E0009842F2D8206802F07DF9A36B1843A063F9
:1017F000A36B1BB92046FFF737FDE6E72046FFF74E
:1018000056FD10BD10B5044603685A6B12F4807F74
:1018100062D04FF480729A630268D36B23F44E73E4
:1018200023F00203D363036B13F0080F2AD0036B7A
:1018300013F0020F03D1036B13F0200F04D02068C4
:1018400002F050F9034690B9236840F2FF529A63C0
:10185000012384F83430236B13F0010F03D1236B81
:1018600013F0020F0AD02046FFF7FDFC10BDA26B5B
:101870001343A3632046FFF7F7FCE5E72046FFF795
:10188000F1FC10BD036B13F0800F0BD0036B13F052
:10189000200F08D1236B13F0010F03D1236B13F03A
:1018A000020F0DD010BD006802F01CF9034600289D
:1018B000F0D0A26B1343A3632046FFF7D5FCE9E702
:1018C0002268D36A23F00803D362012384F83430FA
:1018D0002046FFF7C7FC10BD5A6B12F4804F4BD166
:1018E0005A6B12F4004F4DD1596B40F23A2211421B
:1018F000D8D05A6B12F0020F03D0826B42F0020272
:1019000082635A6B12F0080F03D0A26B42F00802F8
:10191000A2635A6B12F0200F03D0A26B42F0200298
:10192000A2635A6B12F0100F03D0A26B42F01002A8
:10193000A2635A6B12F4007F03D0A26B42F008023C
:10194000A26340F2FF729A632268D36B23F44E7352
:1019500023F00203D363236B13F0800F2ED0236C8C
:10196000B3B11C4A1A65206C00F03CFF002899D0E6
:10197000206CFFF7FDFE10BD4FF480429A63FFF725
:1019800036FB10BD4FF400429A63FFF71EFB10BDFB
:10199000E36B53B1104A1A65E06B00F023FF002897
:1019A00080D0E06BFFF709FF10BD0023A363012384
:1019B00084F834302046FFF77AFC10BD236B13F017
:1019C000080F3FF46FAF012384F834302046FFF74F
:1019D0004BFC67E771170008BB17000838B50446D1
:1019E0000268D36823F0A003D36001F05FF80546D6
:1019F0002368DB6813F0200F07D101F057F8401B74
:101A0000B0F57A7FF4D9032038BD002038BD38B551
:101A10000368DA6812F0400F01D0002038BD044698
:101A20004FF0FF32DA6001F041F805462368DB68C9
:101A300013F0400F07D101F039F8401BB0F57A7F61
:101A4000F4D9032038BD002038BD000038B5002887
:101A500000F09A8004464368402B01D0002B6CD1E3
:101A6000A3687F2B6ED8E368B3F5004F6FD223696C
:101A700063B1B3F5001F09D0B3F5800F06D0B3F5FD
:101A8000C00F03D0D521414800F090FF636933B106
:101A9000B3F5801F03D0D6213C4800F087FFA3692F
:101AA00033B1B3F5802F03D0D721384800F07EFF43
:101AB000637F002B50D0022363772368CA225A62C7
:101AC000236853225A622046FFF7A1FF05460028EB
:101AD00047D12268936823F4E00323F04003936026
:101AE00021688A686368206903436069034313437C
:101AF0008B602368E2681A6122681369A16843EA6F
:101B0000014313612268D36823F08003D360236804
:101B10009B6813F0200F2BD02268136C23F48023D2
:101B200013642268136CA1690B4313642368FF22BA
:101B30005A6201236377284638BDD221134800F04A
:101B400035FF8DE7D321114800F030FF8BE7D4211A
:101B50000E4800F02BFF8AE72377204602F0DAFFD9
:101B6000A9E72368FF225A62042363770125E2E78D
:101B70002046FFF733FF0028CED02368FF225A62A9
:101B8000042363770125D6E70125D4E77C76000896
:101B900008B513460A4601460248FFF74FFA00B15E
:101BA000012008BD3C07002008B513460A4601463F
:101BB0000248FFF7CBFA00B1012008BD3C07002026
:101BC00008B50348FFF794FD043818BF012008BD8D
:101BD0003C07002008B501460148FFF777FD08BD26
:101BE0003C07002082B001238DF807309DF80700E4
:101BF00002B0704708B5FFF7F5FF012801D00120BA
:101C000008BD0248FFF7FCFC08BD00BF3C070020F0
:101C10002DE9F04782B080460F46B44B984223D05E
:101C200003F5806398421FD003F5806398421BD070
:101C300003F58063984217D003F58063984213D070
:101C400003F5806398420FD003F5806398420BD070
:101C500003F58063984207D003F58063984203D070
:101C6000C321A34800F0A2FE3B689AB212B11B0C3C
:101C70001B041BB1C4219E4800F098FE7B68012B19
:101C800022D9112B20D0022B1ED0122B1CD0994A06
:101C9000934219D002F58012934215D002F58012BA
:101CA000934211D0A2F5F81293420DD002F58012A2
:101CB000934209D002F58012934205D0032B03D042
:101CC000C5218B4800F072FEBB68022B01D80025AD
:101CD00075E0C621864800F069FEF8E73B69FBB174
:101CE000092B1DD0012B1BD0022B19D0032B17D091
:101CF000042B15D0052B13D0062B11D0072B0FD09A
:101D0000082B0DD00A2B0BD00B2B09D00C2B07D096
:101D10000D2B05D00F2B03D0D721754800F046FEC0
:101D2000E908083158F8213005F0070292000F2029
:101D3000904023EA0003386900FA02F2134348F89E
:101D400021304CE0EA216A4800F030FE63E00721D0
:101D500000E00021A1400A430233674941F82320F3
:101D6000664B1A686FEA090302EA0301786810F407
:101D7000803F01D049EA0201604A1160526803EADB
:101D80000201786810F4003F01D049EA02015B4A81
:101D90005160926803EA0201786810F4801F01D054
:101DA00049EA0201554A9160D2681340796811F4FA
:101DB000001F01D049EA0203504AD36001350F2DBC
:101DC00000F290800124AC403B6804EA03094C45D2
:101DD000F4D17B68022B81D0122B3FF47FAFD8F86F
:101DE00000304FEA450A032606FA0AF6F643334066
:101DF0007A6802F0030202FA0AF21343C8F80030CC
:101E00007B685A1E012A03D9112B01D0122B16D13F
:101E1000FB68032B96D8D8F808303340FA6802FAEA
:101E20000AF21343C8F80830D8F8043023EA04044F
:101E30007B68C3F30013AB401C43C8F80440D8F8D8
:101E40000C301E40BB6803FA0AF31E43C8F80C604E
:101E50007B6813F0805FB1D000230193284B5A6C4C
:101E600042F480425A645B6C03F480430193019B0B
:101E7000AB08991C204A52F8212005F003018C0080
:101E80000F21A14022EA0102184880453FF461AFCA
:101E90001C4988451AD001F58061884518D001F5A4
:101EA0008061884516D001F58061884514D001F520
:101EB0008061884512D001F58061884510D001F518
:101EC000806188453FF443AF082143E7012141E7A2
:101ED00002213FE703213DE704213BE7052139E7E4
:101EE000062137E702B0BDE8F08700BF00000240DE
:101EF000B47600080000111000380140003C014099
:101F0000003802400004024038B505460C4621B1B5
:101F10002B691C4207D1002038BD4FF4C77103481C
:101F200000F044FDF4E7012038BD00BFB47600089E
:101F300070B5064615460C4651B1012D04D94FF433
:101F4000D871074800F032FD45B92404B46170BD72
:101F500040F2AF11024800F029FDEEE7B46170BD18
:101F6000B476000838B505460C4621B94FF4E37144
:101F7000034800F01BFD6B695C406C6138BD00BF1D
:101F8000B476000808B5054B5B69034200D108BD73
:101F9000024B586100F0D6FCF9E700BF003C01405D
:101FA0000F49D1F8883043F47003C1F888300D4BE5
:101FB0001A6842F001021A60002098601A6822F044
:101FC000847222F480321A60074A5A601A6822F436
:101FD00080221A60D8604FF000638B60704700BFAA
:101FE00000ED00E0003802401030002408B5032066
:101FF00001F040F9002211466FF00B0001F058F992
:10200000002211466FF00A0001F052F90022114639
:102010006FF0090001F04CF9002211466FF0040046
:1020200001F046F9002211466FF0030001F040F97B
:10203000002211466FF0010001F03AF9002211462A
:102040004FF0FF3001F034F908BD000010B5044630
:102050000368234A934237D0B3F1804F34D0A2F5BE
:102060007C42934230D002F5806293422CD002F53C
:102070008062934228D002F58062934224D002F518
:102080008062934220D002F5704293421CD002F548
:102090007052934218D002F58062934214D002F538
:1020A0008062934210D0A2F5983293420CD002F590
:1020B0008062934208D002F58062934204D04FF4CC
:1020C000B171084800F072FC2268D36843F0010344
:1020D000D3602268136843F001031360002010BD31
:1020E0000000014004770008704770477047704750
:1020F00010B5044603681A6912F0020F11D0DA68AD
:1021000012F0020F0DD06FF002021A610123037664
:1021100003689B6913F0030F70D0FFF7E6FF0023FD
:10212000237623681A6912F0040F12D0DA6812F0CD
:10213000040F0ED06FF004021A6102232376236885
:102140009B6913F4407F5FD02046FFF7CEFF00234A
:10215000237623681A6912F0080F12D0DA6812F099
:10216000080F0ED06FF008021A610423237623684B
:10217000DB6913F0030F4ED02046FFF7B6FF0023B4
:10218000237623681A6912F0100F12D0DA6812F061
:10219000100F0ED06FF010021A6108232376236807
:1021A000DB6913F4407F3DD02046FFF79EFF0023FC
:1021B000237623681A6912F0010F03D0DA6812F04F
:1021C000010F36D123681A6912F0800F03D0DA6844
:1021D00012F0800F34D123681A6912F0400F03D037
:1021E000DA6812F0400F32D123681A6912F0200F1A
:1021F00003D0DA6812F0200F30D110BDFFF774FF62
:102200002046FFF773FF8AE72046FFF76DFF204661
:10221000FFF76CFF9BE72046FFF766FF2046FFF7BE
:1022200065FFACE72046FFF75FFF2046FFF75EFF44
:10223000BDE76FF001021A61204600F0A1FBC1E783
:102240006FF080021A61204602F0E7FAC3E76FF0F0
:1022500040021A612046FFF74AFFC5E76FF02002EF
:102260001A61204602F0D8FAC7E700000368454A21
:1022700090424AD0B0F1804F49D0A2F57C429042C2
:1022800047D002F58062904245D002F580629042CC
:1022900043D002F57842904235D000221AB123F0A3
:1022A00070034A681343374A90423AD0B0F1804FE6
:1022B00050D0A2F57C4290424ED002F5806290420E
:1022C0004CD002F5806290424AD002F578429042AA
:1022D00048D002F57052904246D002F5806290429A
:1022E00044D002F58062904242D0A2F598329042EA
:1022F00040D002F5806290423ED002F5806290426A
:102300000DD000220EE00122C8E70122C6E701221B
:10231000C4E70122C2E70122C0E70122BEE7012291
:1023200000E001221AB123F44073CA68134303602A
:102330008B68C3620B688362124B984220D003F50E
:10234000806398421AD000230BB10B690363012309
:10235000436170470122E5E70122E3E70122E1E75B
:102360000122DFE70122DDE70122DBE70122D9E7D5
:102370000122D7E70122D5E70122D3E70123E3E7D2
:102380000123E1E70000014000286BD010B50446AE
:102390000368354A934236D0B3F1804F33D0A2F56B
:1023A0007C4293422FD002F5806293422BD002F5FB
:1023B0008062934227D002F58062934223D002F5D7
:1023C000806293421FD002F5704293421BD002F507
:1023D0007052934217D002F58062934213D002F5F7
:1023E000806293420FD0A2F5983293420BD002F54F
:1023F0008062934207D002F58062934203D0D721D6
:102400001A4800F0D3FAA3685BB1102B09D0202B37
:1024100007D0402B05D0602B03D0D821134800F003
:10242000C5FA23694BB1B3F5807F06D0B3F5007FC1
:1024300003D0D9210D4800F0B9FA94F839305BB1D6
:10244000022384F83930211D2068FFF70FFF012394
:1024500084F83930002010BD84F83830204602F06E
:1024600007FDEDE7012070470000014004770008F8
:1024700030B583B004460368013B062B1ED82368A1
:1024800013F0050F46D0A368023B052B1CD86368E8
:10249000323BB3F5BF7F1DD80022984B1A6000F085
:1024A00005FB0546964B1B6813F0006F18D000F033
:1024B000FDFA401B0228F5D903201CE140F6DD118E
:1024C000904800F073FADAE740F6E4118D4800F026
:1024D0006DFADCE740F6E5118A4800F067FADBE7C1
:1024E0006268A3681B0743EA8213854AC2F88430F6
:1024F0000122824B1A6000F0D9FA0546804B1B6816
:1025000013F0006F06D100F0D1FA401B0228F5D974
:102510000320F0E0236813F0020F00F0EB80E36883
:10252000B3F5807F7ED0B3F5007F7BD0764A9342AF
:1025300078D002F58032934274D002F58032934213
:1025400070D002F5803293426CD002F58032934213
:1025500068D002F58032934264D002F58032934213
:1025600060D002F5803293425CD002F58032934213
:1025700058D002F58032934254D002F58032934213
:1025800050D002F5803293424CD002F58032934213
:1025900048D002F58032934244D002F58032934213
:1025A00040D002F5803293423CD002F58032934213
:1025B00038D002F58032934234D002F58032934213
:1025C00030D002F5803293422CD002F58032934213
:1025D00028D002F58032934224D002F58032934213
:1025E00020D002F5803293421CD002F58032934213
:1025F00018D002F58032934214D002F58032934213
:1026000010D002F5803293420CD002F58032934212
:1026100008D002F58032934204D040F616213948A2
:1026200000F0C4F900230193354B1A6C42F080523C
:102630001A641B6C03F080530193019B334A1368A7
:1026400043F48073136000F031FA05462F4B1B688A
:1026500013F4807F06D100F029FA401B0228F5D937
:10266000032048E0264B1B6F13F4407312D0E2683E
:1026700002F4407293420DD0214B1A6F22F4407243
:10268000234901200860002008601A671B6F13F0BF
:10269000010F13D1E36803F44072B2F5407F1ED0FE
:1026A000174A936823F4F813936015490B6FE26897
:1026B000C2F30B0213430B6700201CE000F0F6F995
:1026C00005460F4B1B6F13F0020FE3D100F0EEF93C
:1026D000401B41F288339842F3D903200BE00849AC
:1026E0008A6822F4F81223F0704323F440731343F2
:1026F0008B60DAE7002003B030BD00BF68004742BE
:10270000003802403C7700080003020000700040DF
:10271000400E474230B405682C6824F480242C60B5
:10272000046863608368402B05D003689960036880
:10273000DA6030BC704703689A600368D960F8E7D4
:102740002DE9F04104460F4690461D46866D5A1EFF
:102750004FF6FE739A4211D894F83430012B3BD0D7
:10276000012384F8343094F83530DBB2012B0BD0E0
:10277000002384F834300220BDE8F0814FF4EA7180
:10278000174800F013F9E7E7022384F835300023F7
:1027900063652B46424639462046FFF7BBFFE26D94
:1027A0003F239340B3602268136843F0160313601D
:1027B0002268536943F080035361236C23B122687C
:1027C000136843F0080313602268136843F00103A1
:1027D00013600020BDE8F0810220BDE8F08100BF59
:1027E0007477000890F83530DBB2022B03D08023D9
:1027F000436501207047052380F83530026813686F
:1028000023F00103136000207047000008B50A465A
:102810000146024803F02EF800BEFEE7B877000834
:1028200000B599B0002301932E4A116C41F08051FC
:102830001164126C02F080520192019A02932A4AAA
:10284000116841F480411160126802F480420292E2
:10285000029A0A220C9201220F92102110911192D9
:102860000222129213931491C023159316920423FB
:1028700017930CA800F034F938BB0F2307930021FD
:10288000089109910A910B9107A800F0C5FB00BBC4
:10289000022303934FF40073069303A8FFF7E8FDA8
:1028A000D8B900F0C1FC114BA3FB0030800900F047
:1028B00059FD042000F06CFD002211464FF0FF305E
:1028C00000F0F6FC19B05DF804FBB0210848FFF7F2
:1028D0009DFFBE210648FFF799FFC5210448FFF779
:1028E00095FF00BF0038024000700040D34D6210D9
:1028F000AC77000808B500F0B3F8FFF791FF02F0DD
:10290000C5F902F09DF802F013F902F05BFA02F04B
:1029100085FA02F06DF901F001FF02F0DFF80648D8
:10292000FFF794FB0548FFF791FB012200210448C3
:1029300002F0A0FFFEE700BFC0070020FC07002058
:102940000478000808B5012809D0B0F5806F10D0D0
:1029500004280AD104210748FFF7D6FA08BD4FF42E
:1029600000710548FFF7FEFA08BDED210348FFF7A7
:102970004DFF08BD0000024000040240AC77000893
:1029800008B50368064A1268934203D0054A1268E4
:10299000934200D108BDFD210348FFF737FF00BF78
:1029A000FC070020C0070020AC77000808B50A46E5
:1029B0000146024802F05EFF00BEFEE7D477000841
:1029C000104B5B7ADBB930B40E4B5D7AEDB200246C
:1029D0005C555D7A03EB85056860587A184402728D
:1029E0005A7AD2B2501CC0B2587230320A703A23AE
:1029F0004B702F238B70CC70204630BC7047012069
:102A0000704700BFFC01002008B50022FFF7D8FF87
:102A100008BD000010B504460E4B18784FF47A73C9
:102A2000B3FBF0F30C4A1068B0FBF3F000F09AFC33
:102A300068B90F2C01D9012010BD002221464FF0AA
:102A4000FF3000F035FC054B1C60002010BD01205C
:102A500010BD00BF0400002000000020080000207E
:102A600008B50B4B1A6842F400721A601A6842F4F7
:102A700080621A601A6842F480721A60032000F0C3
:102A8000F9FB0020FFF7C6FFFFF7B0FA002008BDF2
:102A9000003C0240034A1168034B1B780B4413604F
:102AA000704700BF1C02002004000020014B186882
:102AB000704700BF1C02002038B50446FFF7F6FF40
:102AC0000546B4F1FF3F02D0044B1B781C44FFF7CE
:102AD000EDFF401B8442FAD838BD00BF040000203F
:102AE000002800F0358270B582B0044603680F2BD1
:102AF0003DD8236813F0010F4CD063684BB1B3F598
:102B0000803F06D0B3F5A02F03D0FD21A248FFF7E8
:102B10004DFFA24B9B6803F00C03042B31D09F4B5D
:102B20009B6803F00C03082B26D06368B3F5803F45
:102B30005FD0B3F5A02F62D0984B1A6822F4803290
:102B40001A601A6822F480221A606368002B60D031
:102B5000FFF7ACFF0546914B1B6813F4003F19D1FA
:102B6000FFF7A4FF401B6428F5D90320F5E1F82105
:102B70008948FFF71BFFBCE7884B5B6813F4800FA5
:102B8000D3D0864B1B6813F4003F03D06368002B3F
:102B900000F0E081236813F0020F66D0E368012B98
:102BA00004D940F22F117C48FFF700FF23691F2B47
:102BB0003ED87A4B9B6813F00C0F44D0774B9B6840
:102BC00003F00C03082B39D0E368002B76D00122E8
:102BD000734B1A60FFF76AFF0546704B1B6813F0D2
:102BE000020F62D1FFF762FF401B0228F5D90320D4
:102BF000B3E16A4A136843F480331360A5E7674B77
:102C00001A6842F480221A601A6842F480321A600C
:102C10009BE7FFF74BFF0546604B1B6813F4003F33
:102C2000B8D0FFF743FF401B6428F5D9032094E197
:102C30004FF498715848FFF7B9FEBAE7574B5B68F5
:102C400013F4800FC0D1554B1B6813F0020F04D052
:102C5000E368012B01D001207FE1504A136823F083
:102C6000F803216943EAC1031360236813F0080FD6
:102C700048D06369012B04D94FF4B8714648FFF777
:102C800095FE636963B30122464B1A60FFF70EFF9E
:102C90000546424B5B6F13F0020F33D1FFF706FF7F
:102CA000401B0228F5D9032057E13C4A136823F062
:102CB000F803216943EAC1031360D6E70022384BC9
:102CC0001A60FFF7F3FE0546344B1B6813F0020F42
:102CD000CBD0FFF7EBFE401B0228F5D903203CE1E7
:102CE0000022304B1A60FFF7E1FE05462B4B5B6F6D
:102CF00013F0020F06D0FFF7D9FE401B0228F5D9CA
:102D000003202AE1236813F0040F00F08580A368F4
:102D1000012B06D9052B04D04FF4CE711E48FFF7C6
:102D200045FE1E4B1B6C13F0805F33D100230193D3
:102D30001A4B1A6C42F080521A641B6C03F08053D9
:102D40000193019B0125184B1B6813F4807F2DD044
:102D5000A368012B3ED0052B42D0104B1A6F22F0F6
:102D600001021A671A6F22F004021A67A368002B87
:102D700040D0FFF79BFE0646084B1B6F13F0020F77
:102D800049D1FFF793FE801B41F288339842F3D973
:102D90000320E2E00025D6E724780008003802404E
:102DA00000004742800E4742007000406D4A1368A1
:102DB00043F480731360FFF779FE0646694B1B6886
:102DC00013F4807FC4D1FFF771FE801B0228F5D970
:102DD0000320C2E0644A136F43F001031367C5E7A1
:102DE000614B1A6F42F004021A671A6F42F0010237
:102DF0001A67BBE7FFF75AFE06465B4B1B6F13F0E3
:102E0000020F08D0FFF752FE801B41F28833984230
:102E1000F3D90320A1E00DBBA369022B24D8A36939
:102E2000002B00F09980504A926802F00C02082AA8
:102E300000F09580022B1DD000224C4B1A60FFF74A
:102E400035FE0446484B1B6813F0007F7ED0FFF729
:102E50002DFE001B0228F5D903207EE0424A136CA8
:102E600023F080531364D7E740F2DF114048FFF7A7
:102E70009DFDD4E7E3693BB1B3F5800F04D04FF477
:102E8000F4713B48FFF792FD236A3F2B28D8636A11
:102E9000323BB3F5BF7F29D8A36A022B0AD0042B9B
:102EA00008D0062B06D0082B04D040F2EB11304896
:102EB000FFF77CFDE36A023B0D2B1DD800222B4B54
:102EC0001A60FFF7F3FD0546274B1B6813F0007FE0
:102ED00018D0FFF7EBFD401B0228F5D903203CE09A
:102EE00040F2E9112248FFF761FDD0E74FF4F57198
:102EF0001F48FFF75BFDCFE74FF4F6711C48FFF763
:102F000055FDDBE7E369226A1343626A43EA8213F1
:102F1000A26A5208013A43EA0243E26A43EA0263C0
:102F2000114A53600122114B1A60FFF7BFFD04469E
:102F30000D4B1B6813F0007F06D1FFF7B7FD001B98
:102F40000228F5D9032008E0002006E0002004E074
:102F500001207047012000E0002002B070BD012078
:102F6000FBE700BF007000400038024060004742AD
:102F700024780008F8B5254B9B6803F00C03042B5C
:102F800041D0082B01D02248F8BD204B5A6802F0EE
:102F90003F025B6813F4800F12D01C4B5968C1F3D9
:102FA000881100231B48A1FB0001FDF711FE174B00
:102FB0005B68C3F3014301335B00B0FBF3F0F8BD82
:102FC000124B5B68C3F388131E4600275C01002583
:102FD000E41A65EB0705A90141EA9461A001001B11
:102FE00061EB0501CB0043EA5073C400A01943EB29
:102FF00007018B0243EA90538402204619460023BE
:10300000FDF7E6FDD3E70348F8BD00BF00380240F6
:103010000024F40040787D01002800F0F68070B5AF
:1030200004460D460368013B0E2B11D8072D15D819
:10303000784B1B6803F00F039D4215D9EBB2754A1C
:103040001370136803F00F039D420DD0012070BD73
:103050004FF414717048FFF7A9FCE7E740F25121E3
:103060006D48FFF7A3FCE3E7236813F0020F2ED0AF
:1030700013F0040F04D0694A936843F4E05393605B
:10308000236813F0080F04D0644A936843F4604344
:103090009360A368A3B1802B12D0902B10D0A02BEB
:1030A0000ED0B02B0CD0C02B0AD0D02B08D0E02BE8
:1030B00006D0F02B04D04FF41D715748FFF776FC73
:1030C000564A936823F0F003A1680B43936023688A
:1030D00013F0010F3CD06368032B25D86368012BE4
:1030E00028D09A1E012A2CD94C4A126812F0020FDD
:1030F00000F08D8049498A6822F0030213438B60F7
:10310000FFF7D4FC0646454B9B6803F00C0362684E
:10311000B3EB820F1CD0FFF7C9FC801B41F2883350
:103120009842F0D9032070BD40F27B213A48FFF766
:103130003DFCD3E7394A126812F4003FDAD101208E
:1031400070BD364A126812F0007FD3D1012070BDE5
:10315000304B1B6803F00F039D4209D2EAB22D4B9E
:103160001A701B6803F00F039D4201D0012070BD4F
:10317000236813F0040F19D0E36883B1B3F5805FBF
:103180000DD0B3F5A05F0AD0B3F5C05F07D0B3F59B
:10319000E05F04D040F2B9211F48FFF707FC1F4A47
:1031A000936823F4E053E1680B439360236813F0C2
:1031B000080F1AD0236983B1B3F5805F0DD0B3F542
:1031C000A05F0AD0B3F5C05F07D0B3F5E05F04D0CD
:1031D0004FF430711048FFF7E9FB104A936823F46D
:1031E0006043216943EAC1039360FFF7C3FE0B4BC1
:1031F0009B68C3F303130A4AD35CD840094B186099
:103200000020FFF707FC002070BD0120704701205F
:1032100070BD00BF003C0240247800080038024026
:10322000EC76000800000020014B1868704700BFD2
:103230000000002008B5FFF7F7FF044B9B68C3F3BD
:103240008223034AD35CD84008BD00BF0038024047
:10325000FC76000808B5FFF7E7FF044B9B68C3F353
:103260004233034AD35CD84008BD00BF0038024057
:10327000FC76000810B50446C31E042B0FD80A4A7A
:10328000D36823F4E0631B041B0C240204F4E06401
:10329000234343F0BF6343F40033D36010BDA22146
:1032A0000248FFF783FBEAE700ED00E05C780008E6
:1032B00070B505460C4616460F2A24D80F2C27D881
:1032C0001A4BDB68C3F30223C3F10702042A28BFA9
:1032D0000422191D062920D9033B012101FA02F21B
:1032E000013A14409C4001FA03F3013B33401C4374
:1032F000002D14DB2401E4B205F1604505F56145BC
:1033000085F8004370BDBA210948FFF74FFBD5E7A8
:10331000BB210748FFF74AFBD2E70023DDE705F0B2
:103320000F052401E4B2034B5C5570BD00ED00E0D5
:103330005C78000814ED00E010B5041E09DB62099A
:1033400004F01F04012303FA04F4044B43F8224061
:1033500010BDCE210248FFF729FBF0E700E100E0B5
:103360005C7800080138B0F1807F0AD2064B5860C3
:10337000F021064A82F823100020986007221A6084
:1033800070470120704700BF10E000E000ED00E052
:1033900010B50446042800D038B9042C0BD0094AD3
:1033A000136823F00403136010BD40F2D9110648DE
:1033B000FFF7FCFAF1E7034A136843F004031360D4
:1033C00010BD00BF10E000E05C780008704708B551
:1033D000FFF7FCFF08BD7047FEE7FEE7FEE7FEE7EC
:1033E00070477047704708B5FFF754FBFFF7EFFFD2
:1033F00008BD08B50120FEF7C5FD08BD08B50420CD
:10340000FEF7C0FD08BD08B54FF48060FEF7BAFDB9
:1034100008BD000008B50248FEF7F4F908BD00BF7A
:103420003C07002008B5024800F0E8FF08BD00BFD7
:10343000FC06002008B50248FEF75AFE08BD00BF92
:10344000C007002008B50248FEF752FE08BD00BFC5
:10345000FC0700200C4B1B680C4AA2FB03235A0AF2
:1034600041F2883303FB02F35A1E4BB1416B134602
:1034700011F0800FF8D040F2FF53836300207047B3
:103480004FF00040704700BF00000020D34D621095
:10349000144B1B68144AA2FB03235A0A41F28833D7
:1034A00003FB02F35A1ECBB1416B134611F0450FDB
:1034B000F8D0436B13F0040F03D004238363184642
:1034C0007047436B13F0010F04D140F2FF53836345
:1034D0000020704701238363184670474FF0004077
:1034E000704700BF00000020D34D6210104B1B68D6
:1034F000104AA2FB03235A0A41F2883303FB02F36A
:103500005A1E8BB1416B134611F0450FF8D0436B37
:1035100013F0040F03D0042383631846704740F26E
:10352000FF538363002070474FF00040704700BF97
:1035300000000020D34D6210124B1B68124AA2FB00
:1035400003235A0A41F2883303FB02F35A1EA3B144
:10355000416B134611F0450FF8D0436B13F0040F85
:1035600003D04023836304207047436B13F0400F64
:1035700006D040238363002070474FF0004070471F
:103580000020704700000020D34D621084B02DE968
:10359000F047064609A880E80E002E4B9E4203D055
:1035A000ED212D48FFF702FADDF82490B9F1000F64
:1035B00006D0B9F5005F03D0EE212748FFF7F6F9F2
:1035C000DDF828A0BAF1000F06D0BAF5806F03D05D
:1035D000EF212148FFF7EAF9DDF82C80B8F1000F60
:1035E00006D0B8F5007F03D0F0211B48FFF7DEF9C5
:1035F0000C9D4DB1B5F5006F06D0B5F5805F03D0D9
:10360000F1211548FFF7D2F90D9F37B1B7F5804F7B
:1036100003D0F2211048FFF7C9F90E9CFF2C13D8F4
:1036200049EA0A0948EA090845EA08053D432C43E6
:10363000736823F4FD4323F07F031C437460002070
:10364000BDE8F04704B07047F3210348FFF7AEF937
:10365000E6E700BF002C014094780008D0F8800015
:1036600070470B68C0F88030002070470323036068
:1036700000207047006800F00300704738B5054629
:103680000C464B683F2B33D8A36843B1402B06D080
:10369000C02B04D04FF4BD711848FFF787F9E368D9
:1036A00053B1B3F5807F07D0B3F5007F04D040F26B
:1036B0007B111248FFF77AF923693BB1B3F5806FAC
:1036C00004D04FF4BE710D48FFF770F92368AB606A
:1036D0006368A2681343E268134322691343EA68EC
:1036E00022F47F6222F00F021343EB60002038BD0A
:1036F00040F279110148FFF759F9C5E794780008BD
:103700000069C0B27047000030B583B005460023A1
:1037100001930C4651B1042908D0082906D00C2980
:1037200004D04FF4D4710548FFF740F914352C4408
:103730000194019B186803B030BD00BF9478000865
:1037400038B5524B1B68524CA4FB03435B0A02FB87
:1037500003F2531E002A63D0446B1A4614F0450F3F
:10376000F7D0436B13F0040F03D004238363184690
:1037700038BD436B13F0010F03D001238363184658
:1037800038BD0D460446FFF7BBFFA84201D001201B
:1037900038BD40F2FF53A36300212046FFF7B4FF7A
:1037A0003C4B0340002B3ED000283EDB10F0804F06
:1037B00001D0402038BD10F0005F01D0802038BD1E
:1037C00010F0805F34D110F0006F34D110F0806FB2
:1037D00034D110F0807F34D110F4000F34D110F4C4
:1037E000800F34D110F4001F34D110F4801F34D175
:1037F00010F4802F34D110F4003F34D110F4803F06
:1038000034D110F4004F34D110F4804F34D110F47F
:10381000005F34D110F0080F34D04FF4000038BDF1
:103820004FF0004038BD002038BD4FF0007038BD6B
:103830004FF4807038BD4FF4007038BD4FF4806095
:1038400038BD4FF4006038BD4FF4805038BD4FF4A0
:10385000005038BD4FF4804038BD4FF4004038BDB3
:103860004FF4003038BD4FF4802038BD4FF40020B5
:1038700038BD4FF4801038BD4FF4001038BD4FF400
:10388000800038BD4FF4803038BD00BF00000020FC
:10389000D34D621008E0FFFD70B5254B1B68254C29
:1038A000A4FB03435C0A41F2883303FB04F35C1E70
:1038B000002B37D0456B234615F0450FF7D0436BEF
:1038C00013F0040F03D004238363184670BD436BC9
:1038D00013F0010F03D001238363184670BD164611
:1038E0000D460446FFF70CFFA84201D0012070BD31
:1038F00040F2FF53A36300212046FFF705FF10F4B9
:10390000604F05D010F4804F06D04FF4005070BDCA
:10391000000C3080002070BD10F4004F05D04FF433
:10392000805070BD4FF0004070BD4FF4803070BDCE
:1039300000000020D34D621038B505460C464B6898
:10394000B3F1007F4ED2A36803B3102B1ED0202BFF
:103950001CD0302B1AD0402B18D0502B16D0602BF7
:1039600014D0702B12D0802B10D0902B0ED0A02B07
:103970000CD0B02B0AD0C02B08D0D02B06D0E02B17
:1039800004D04FF4DF711A48FFF710F8E36833B141
:10399000022B04D040F2BF111548FFF707F8236946
:1039A00033B1042B04D04FF4E0711148FEF7FEFF51
:1039B0006369012B04D940F2C1110D48FEF7F6FFEF
:1039C00023686B626368AB62A368E2681343226991
:1039D000134362691343EA6A22F0F7021343EB626E
:1039E000002038BD40F2BD110148FEF7DFFFAAE715
:1039F0009478000830B587B00546019110240294F0
:103A000040230393002304934FF48063059301A99B
:103A1000FFF734FE41F2883221462846FFF790FE38
:103A200007B030BD30B587B005460191112402942E
:103A300040230393002304934FF48063059301A96B
:103A4000FFF71CFE41F2883221462846FFF778FE38
:103A500007B030BD30B587B00546019112240294FD
:103A600040230393002304934FF48063059301A93B
:103A7000FFF704FE41F2883221462846FFF760FE38
:103A800007B030BD30B587B00546019118240294C7
:103A900040230393002304934FF48063059301A90B
:103AA000FFF7ECFD41F2883221462846FFF748FE39
:103AB00007B030BD30B587B0054601911924029496
:103AC00040230393002304934FF48063059301A9DB
:103AD000FFF7D4FD41F2883221462846FFF730FE39
:103AE00007B030BD30B587B00546002301930C24E4
:103AF00002944022039204934FF48063059301A93A
:103B0000FFF7BCFD034A21462846FFF719FE07B020
:103B100030BD00BF00E1F50530B587B00546019224
:103B20000724029440230393002304934FF48063FB
:103B3000059301A9FFF7A2FD41F2883221462846EC
:103B4000FFF7FEFD07B030BD10B586B00446002378
:103B500001930293039304934FF48063059301A9A7
:103B6000FFF78CFD2046FFF775FC06B010BD10B5C1
:103B700086B004464FF4D573019308230293402383
:103B80000393002304934FF48063059301A9FFF787
:103B900075FD2046FFF7D0FC06B010BD30B587B0EC
:103BA0000546019137240294402303930023049394
:103BB0004FF48063059301A9FFF760FD41F288325D
:103BC00021462846FFF7BCFD07B030BD10B586B0D2
:103BD000044641F0004141F48011019129230293F0
:103BE00040230393002304934FF48063059301A9BA
:103BF000FFF744FD2046FFF779FC06B010BD10B575
:103C000086B004460023019302220292C02203924E
:103C100004934FF48063059301A9FFF72FFD20461D
:103C2000FFF736FC06B010BD10B586B00446019112
:103C300009230293C0230393002304934FF480636A
:103C4000059301A9FFF71AFD2046FFF721FC06B0F6
:103C500010BD70B586B005460E46002301930324BF
:103C600002944022039204934FF48063059301A9C8
:103C7000FFF704FD324621462846FFF70DFE06B049
:103C800070BD30B587B0054601910D2402944023E4
:103C90000393002304934FF48063059301A9FFF776
:103CA000EDFC41F2883221462846FFF749FD07B076
:103CB00030BD0268D36823F49073D36002685369FF
:103CC00023F001035361202380F83A30704790F8C5
:103CD0003930DBB2212B01D0022070478368B3F565
:103CE000805F17D00268036A591C01621B78536019
:103CF000C38C9BB2013B9BB2C384DBB90268D3681F
:103D000023F08003D3600268D36843F04003D3609C
:103D100000207047036A02681B88C3F308035360DE
:103D200003691BB9036A02330362E1E7036A0133E3
:103D30000362DDE7002070472DE9F0470446426842
:103D4000B64B9A4200F2A680E3683BB1B3F5005F40
:103D500004D040F68611B248FEF728FE236953B11D
:103D6000B3F5806F07D0B3F5C06F04D040F687116C
:103D7000AB48FEF71BFE63694FF6F372134200D1A6
:103D800023B940F68811A648FEF710FE2268136991
:103D900023F44053E1680B4313612168CB6823F49B
:103DA000164323F00C03A2682069024360690243B2
:103DB000E06902431343CB602268536923F44073E4
:103DC000A1690B435361E369B3F5004F68D0D4F8A0
:103DD0000080944B984500F0298103F58063984555
:103DE00000F02481FFF726FA00EB800000EB800052
:103DF0006568AD00B0FBF5F58B4FA7FB05356D0988
:103E00002E01FFF717FA00EB800000EB80006568D9
:103E1000AD00B0FBF5FAFFF70DFA00EB800000EB08
:103E200080006568AD00B0FBF5F5A7FB05356D09B1
:103E30004FF0640909FB15A52D013235A7FB0535A7
:103E40006D0905F0F0053544FFF7F4F900EB80004B
:103E500000EB80006668B600B0FBF6F6FFF7EAF903
:103E600000EB800000EB800063689B00B0FBF3F088
:103E7000A7FB0030400909FB10694FEA091909F155
:103E80003209A7FB0937C7F343172F44C8F8087056
:103E9000BDE8F08740F685116148FEF787FD53E7DE
:103EA000D4F8008003F1804303F5104398455CD0BB
:103EB00003F58063984558D0FFF7BCF900EB80000C
:103EC00000EB800065686D00B0FBF5F5564FA7FB71
:103ED00005356D092E01FFF7ADF900EB800000EB11
:103EE000800065686D00B0FBF5FAFFF7A3F900EB01
:103EF000800000EB800065686D00B0FBF5F5A7FB66
:103F000005356D094FF0640909FB15A5ED00323543
:103F1000A7FB05356D096D0005F4F8753544FFF70D
:103F200089F900EB800000EB800066687600B0FB4A
:103F3000F6F6FFF77FF900EB800000EB8000636886
:103F40005B00B0FBF3F3A7FB03235B0909FB1369D9
:103F50004FEAC90909F13209A7FB0937C7F342172C
:103F60002F44C8F80870BDE8F087FFF773F900EB3D
:103F7000800000EB800065686D00B0FBF5F52A4F0E
:103F8000A7FB05356D092E01FFF764F900EB8000F2
:103F900000EB800065686D00B0FBF5FAFFF75AF999
:103FA00000EB800000EB800065686D00B0FBF5F56C
:103FB000A7FB05356D094FF0640909FB15A5ED0058
:103FC0003235A7FB05356D096D0005F4F8753544EC
:103FD000FFF740F900EB800000EB80006668760098
:103FE000B0FBF6F6FFF736F900EB800000EB80003F
:103FF00063685B00B0FBF3F3A7FB03235B0909FBDA
:1040000013694FEAC90909F13209A7FB0937C7F358
:1040100042172F44C8F80870BDE8F087A037A00009
:10402000CC780008001001401F85EB51FFF712F912
:1040300000EB800000EB80006568AD00B0FBF5F59B
:10404000264FA7FB05356D092E01FFF703F900EB9D
:10405000800000EB80006568AD00B0FBF5FAFFF76B
:10406000F9F800EB800000EB80006568AD00B0FB64
:10407000F5F5A7FB05356D094FF0640909FB15A59A
:104080002D013235A7FB05356D0905F0F0053544E6
:10409000FFF7E0F800EB800000EB80006668B600F8
:1040A000B0FBF6F6FFF7D6F800EB800000EB8000DF
:1040B00063689B00B0FBF3F3A7FB03235B0909FBD9
:1040C00013694FEA091909F13209A7FB0937C7F348
:1040D00043172F44C8F80870BDE8F0871F85EB51DF
:1040E0002DE9F04105460F4616469846069C2B687A
:1040F0001B6837EA03030CBF01230023B3421ED120
:10410000B4F1FF3FF3D02CB1FEF7D0FCA0EB0800D8
:104110008442ECD22A68D36823F4D073D3602A682F
:10412000536923F001035361202385F8393085F862
:104130003A30002385F838300320BDE8F0810020B4
:10414000BDE8F081002800F0868010B50446836940
:104150002BB30368414A934210D0A2F54C429342DC
:104160000CD002F58062934208D002F54C42934293
:1041700004D04FF480713A48FEF718FCA3695BB392
:10418000B3F5807F28D0B3F5007F25D0B3F5407F0D
:1041900022D040F201113248FEF708FC1CE003680F
:1041A0002E4A934218D0A2F54C42934214D002F505
:1041B0008062934210D002F5806293420CD002F5E7
:1041C0008062934208D002F54442934204D040F208
:1041D00005112348FEF7EAFBA3683BB1B3F5805F06
:1041E00004D040F207111E48FEF7E0FBE3693BB143
:1041F000B3F5004F04D04FF484711948FEF7D6FB95
:1042000094F839300BB3242384F839302268D3680A
:1042100023F40053D3602046FFF78EFD2268136914
:1042200023F4904313612268536923F02A035361F6
:104230002268D36843F40053D3600020E063202356
:1042400084F8393084F83A3010BD84F8383020468C
:1042500000F08CFCD7E70120704700BF0010014040
:10426000CC7800082DE9F04182B01E4690F8393034
:10427000DBB2202B04D00223184602B0BDE8F08147
:1042800004460D469046002955D0002A55D090F896
:104290003830012B01D10223EEE7012380F83830BA
:1042A0000023C363212380F83930FEF7FFFB074664
:1042B000A4F82480A4F8268010E000963B46002253
:1042C00080212046FFF70CFF002838D122682B8878
:1042D000C3F3080353602369CBB90235E38C9BB267
:1042E000BBB1E38C9BB2013B9BB2E384A368B3F503
:1042F000805FE2D000963B46002280212046FFF7F7
:10430000EFFEF0B923682A785A600135E6E70135F7
:10431000E4E700963B46002240212046FFF7E0FEFE
:10432000034608B10323A7E7202284F8392000229E
:1043300084F83820A0E701239EE701239CE70323AC
:104340009AE7032398E7704708B50168CB6823F024
:104350004003CB60202380F83930FFF7F4FF0020C2
:1043600008BD704708B590F83A30DBB2222B01D077
:10437000022008BD8368B3F5805F0FD003690BBBD3
:10438000836A5A1C8262026852681A70C38D9BB29B
:10439000013B9BB2C385F3B1002008BD826A03696B
:1043A00043B903685B68C3F308031380836A02336D
:1043B0008362EBE703685B68DBB21380836A0133D7
:1043C0008362E3E7826A531C836203685B6803F0DD
:1043D0007F031370DAE70268D36823F49073D36025
:1043E0000268536923F001035361202380F83A30B7
:1043F000FFF7B7FF002008BD7047000010B5044666
:1044000002681368D168526913F00F0005D113F0E8
:10441000200F02D011F0200F53D1002867D012F0E6
:10442000010202D111F4907F61D013F0010F06D088
:1044300011F4807F03D0E06B40F00100E06313F0E3
:10444000040F04D01AB1E06B40F00200E06313F0F7
:10445000020F04D01AB1E06B40F00400E06313F0E7
:10446000080F04D01AB1E26B42F00802E263E26B7B
:10447000002A48D013F0200F02D011F0200F24D1D1
:1044800023685B6903F04003E26B12F0080F00D170
:104490003BB32046FFF70DFC23685A6912F0400F2A
:1044A0001BD05A6922F040025A61636B8BB11A4AE1
:1044B0001A65606BFEF796F928B3606B036D984739
:1044C00010BD2046FFF74EFF10BD2046FFF74AFF04
:1044D000D6E72046FFF790FF10BD2046FFF78CFF80
:1044E00010BD2046FFF788FF0023E36310BD13F0E3
:1044F000800F02D011F0800F06D113F0400F02D0D0
:1045000011F0400F04D110BD2046FFF7E0FB10BDB5
:104510002046FFF719FFF6E71D45000808B5806B38
:104520000023C385C384FFF767FF08BD002800F0A0
:10453000E78038B504460368724A93420CD002F50E
:104540008062934208D002F58062934204D04FF417
:10455000B7716D48FEF72AFA6368013B6B4A9342D4
:1045600000F28180A3683BB1B3F5804F04D04FF4D3
:10457000B8716548FEF71AFAE36823F47F7323F0F5
:104580000303002B75D12369B3F5804F07D0B3F532
:10459000404F04D04FF4B9715B48FEF707FA6369E6
:1045A000012B04D940F273115748FEF7FFF9A369B4
:1045B00033F0FE0363D1E36933B1402B04D040F202
:1045C00075115148FEF7F2F9236A33B1802B04D0FC
:1045D0004FF4BB714C48FEF7E9F994F83D30002BDD
:1045E00053D0242384F83D302268136823F001035C
:1045F0001360FEF71FFE464BA3FB00239B0C2268B3
:10460000536021686568434A954244D801330B6280
:10461000216863683F4A934247D85B00B0FBF3F0E0
:10462000C0F30B03032B00D80420C8612268E369A0
:10463000216A0B43136022682369E1680B4393608E
:1046400022686369A1690B43D3602268136843F051
:104650000103136000202064202384F83D30206390
:1046600084F83E0038BD40F26F112748FEF79EF9EE
:1046700078E740F271112448FEF798F983E74FF488
:10468000BA712148FEF792F995E784F83C3020464C
:1046900000F0F8F9A5E74FF4967202FB03F31E4A07
:1046A000A2FB03239B090133B1E7A5688DB903EB96
:1046B0004302B0FBF2F2C2F30B02B2FA82F25209E9
:1046C000E2B995B903EB4303B0FBF3F040F40040CB
:1046D000ABE703EB830202EB8202B0FBF2F2C2F320
:1046E0000B02B2FA82F25209EAE703EB830303EB0F
:1046F0008303B0FBF3F040F4404096E7012094E7D9
:104700000120704700540040047900087F1A060019
:1047100083DE1B43A0860100D34D621008B5034918
:104720000348FEF771F9034B187008BD24020020FE
:10473000747900082002002038B504460D4603684D
:10474000334A93421FD0B3F1804F1CD0A2F57C4274
:10475000934218D002F58062934214D002F5806231
:10476000934210D002F5806293420CD002F5806231
:10477000934208D002F57042934204D040F24A615D
:104780002448FEF713F92B6893B1102B10D0202B7F
:104790000ED0302B0CD0402B0AD0502B08D0602BE1
:1047A00006D0702B04D040F24B611A48FEF7FEF899
:1047B0006B68802B00D01BBB94F83830012B25D0C0
:1047C000012284F83820022384F8393021684B68AC
:1047D00023F070034B6021684B68286803434B60EB
:1047E00021688B6823F080038B6021688B68686880
:1047F00003438B6084F83920002084F8380038BDEA
:1048000040F24C610348FEF7D1F8D5E7022038BDED
:10481000000001403C7900087047704708B501224C
:10482000064B1A70FDF7CCF920B9044A137803F04F
:10483000FE031370014B187808BD00BF0C00002068
:1048400010B504460122074B1A70FDF7D3F910B1D9
:10485000044B187810BD2046FFF7E0FF014B18709D
:10486000F6E700BF0C00002008B5FFF7D7FF08BD32
:1048700010B5084611460024174A14601A46FDF781
:1048800087F908B1012010BDFEF710F90446124B5C
:104890001B6833B9FEF70AF9001B47F22F53984201
:1048A000F5D90D4B1B680BB9012010BD00220A4B36
:1048B0001A60FEF7FBF80446FEF7F8F8001B47F213
:1048C0002F53984205D8FDF77BF90028F4D100203A
:1048D00010BD012010BD00BF0802002010B5084621
:1048E00011460024174A14601A46FDF75DF908B115
:1048F000012010BDFEF7DAF80446124B1B6833B9ED
:10490000FEF7D4F8001B47F22F539842F5D90D4B10
:104910001B680BB9012010BD00220A4B1A60FEF77C
:10492000C5F80446FEF7C2F8001B47F22F53984221
:1049300005D8FDF745F90028F4D1002010BD01206D
:1049400010BD00BF0C020020154B1B7813F0010FA7
:1049500001D00320704710B588B0144603291CD835
:10496000DFE801F002050C13002008B010BD684616
:10497000FDF730F9069B23600020F6E76846FDF757
:1049800029F9079B23800020EFE76846FDF722F90D
:10499000079B5B0A23600020E7E70420E5E700BFF0
:1049A0000C00002008B503460D4A126862B10C4A9B
:1049B00010680C4A12681268A2F5007203449A4209
:1049C00006D3074A136008BD0749054A1160EEE7A0
:1049D00000F0B2FA0C2303604FF0FF3008BD00BFB7
:1049E0001002002008ED00E04008002070B51646D7
:1049F000002405E04D1C087800F0E8F80134294651
:104A0000B442F7DB304670BD4FF0FF3070474FF4D3
:104A100000534B6000207047012070470020704712
:104A2000F8B50D461746002405E06E1CAFF3008074
:104A3000287001343546BC42F7DB3846F8BD00002B
:104A400008B50C480C4B03600C4B4360002383609B
:104A5000C3604FF48042026143618361C3610362BA
:104A6000FFF764FD00B908BD4C210548FDF7CEFEF7
:104A7000F9E700BF8806002000580040801A0600B1
:104A8000887900080268124B9A4200D0704700B53E
:104A900087B04FF4406301931223029301230393E1
:104AA00003230493042305930DEB03010948FDF749
:104AB000AFF800230093084B1A6C42F480021A648A
:104AC0001B6C03F480030093009B07B05DF804FBAC
:104AD00000580040000402400038024008B50A486F
:104AE0000A4B0360002343607F228260FF22C26082
:104AF000036143618361FCF7A9FF00B908BD4A2146
:104B00000348FDF783FEF9E7DC060020002800409B
:104B1000947900080268044B9A4200D07047012241
:104B2000024B1A60FAE700BF002800403C0E4742E3
:104B300008B50B480B4B03604FF4E133436000238F
:104B40008360C36003610C2242618361C361FFF72C
:104B5000F9FA00B908BD53210348FDF757FEF9E7FC
:104B6000FC060020004C0040A07900080268154BAC
:104B70009A4200D0704710B586B00024009403F527
:104B8000F6331A6C42F400221A641B6C03F40023FF
:104B90000093009B032301930222029201220392BD
:104BA00004930823059301A90748FDF731F822462D
:104BB00021463420FEF77CFB3420FEF7BDFB06B017
:104BC00010BD00BF004C00400000024000B583B0A3
:104BD00002A941F8040D4FF6FF7301220348FFF7C5
:104BE00041FB019803B05DF804FB00BFFC06002008
:104BF000054B064A1A6000225A609A60DA601A6110
:104C00005A619A61704700BF3C070020002C0140A8
:104C100002681B4B9A4200D07047F0B587B0002461
:104C2000009403F586335A6C42F400625A645B6C5C
:104C300003F400630093009B4FF488530193022711
:104C400002970394032604960C25059501A90D48A7
:104C5000FCF7DEFF04230193029703940496059565
:104C60000DEB03010848FCF7D3FF22462146312013
:104C7000FEF71EFB3120FEF75FFB07B0F0BD00BF63
:104C8000002C014000080240000C02402DE9F041D8
:104C90008CB000240194464B1A6B42F004021A6354
:104CA0001A6B02F004020192019A02941A6B42F00C
:104CB00080021A631A6B02F080020292029A039435
:104CC0001A6B42F001021A631A6B02F0010203929E
:104CD000039A04941A6B42F010021A631A6B02F0E2
:104CE00010020492049A05941A6B42F002021A63AD
:104CF0001A6B02F002020592059A06941A6B42F0B2
:104D000008021A631B6B03F008030693069B294DE8
:104D100022464FF410412846FDF70AF9DFF8A0803B
:104D200022464FF440714046FDF702F940F2044339
:104D30000793214F0897099407A92048FCF768FFBB
:104D40004FF4104307930126089609940A9407A983
:104D50002846FCF75DFF4FF44073079308960994CB
:104D60000A9407A94046FCF753FF07960897099451
:104D700007A92846FCF74CFF224621460620FEF7ED
:104D800097FA0620FEF7D8FA224621460820FEF7B9
:104D90008FFA0820FEF7D0FA224621462820FEF797
:104DA00087FA2820FEF7C8FA0CB0BDE8F08100BFF2
:104DB00000380240001002400000311000000240A4
:104DC0000004024000B583B01148124B036043F663
:104DD0007F6343600023836040F2E733C360FDF7E5
:104DE000D3FA50B900230093019369460848FFF7AE
:104DF000A3FC38B903B05DF804FB47210648FDF772
:104E000005FDEFE74E210448FDF700FDF2E700BF86
:104E1000C007002000100040AC79000800B583B046
:104E20001048114B03609F2343600023836063237A
:104E3000C360FDF7A9FA50B90023009301936946B6
:104E40000848FFF779FC38B903B05DF804FB5D2131
:104E50000648FDF7DBFCEFE764210448FDF7D6FCCC
:104E6000F2E700BFFC07002000140040AC79000806
:104E700000B583B00368184A934205D0174A93429D
:104E800016D003B05DF804FB00210091144B1A6C9E
:104E900042F010021A641B6C03F010030093009B95
:104EA0000A463620FEF704FA3620FEF745FAE8E710
:104EB000002101910A4B1A6C42F020021A641B6C0B
:104EC00003F020030193019B0A463720FEF7F0F917
:104ED0003720FEF731FAD4E70010004000140040FC
:104EE00000380240DFF834D0002103E00C4B5B585F
:104EF000435004310B480C4B42189A42F6D30B4AEC
:104F000002E0002342F8043B094B9A42F9D3FDF733
:104F100047F800F017F8FDF7EDFC7047000002209D
:104F2000887C000800000020E0010020E001002053
:104F30003C080020FEE70000014B1868704700BFE6
:104F40001000002070B50D4E0D4CA41BA4100025C0
:104F5000A54209D10B4E0C4C02F06AFBA41BA41015
:104F60000025A54205D170BD56F82530984701357A
:104F7000EEE756F8253098470135F2E7807C0008C7
:104F8000807C0008807C0008847C00080244034682
:104F9000934200D1704703F8011BF9E72DE9FF4761
:104FA00055EC104B0D9FDDF830A0002D0E469146BC
:104FB0001946B8BF22462B4627F02007BBBF05F194
:104FC00000431D4600232D23B8BF1446462F0B7007
:104FD00004D0452F00D10136022100E0032103ABAC
:104FE000019302AB00933246534645EC104B00F060
:104FF000E7FC472F804602D119F0010F26D0462F3B
:1050000008EB060911D198F80030302B0AD10022A4
:10501000002320462946FBF76BFD18B9C6F10106AF
:10502000CAF80060DAF800309944002200232046D4
:105030002946FBF75DFD38B93022039B994505D918
:10504000591C03911A70F8E7CDF80C90039B0E9A47
:10505000A3EB08034046136004B0BDE8F087F7B542
:1050600003460029B8BF494203F8022BB4BF2D22E2
:105070002B220929427020DD0DF1070217460A266E
:1050800091FBF6F506FB15113031092D02F8011CD4
:1050900002F1FF34294609DC3031023A04F8011CE0
:1050A000BA421C4604D3201A03B0F0BD2246E7E7FB
:1050B00012F8011B03F8011BF2E730221C461144D1
:1050C00004F8022B5970EEE72DE9F04F8DB00C4635
:1050D000DDF8588016461F46054601F009FB0368B7
:1050E00004931846FBF78AF800230A93D8F8003097
:1050F0000590073323F0070303F1080294F818A082
:10510000D4F800B0C8F80020D3E90023C4E9122382
:10511000D4E9128929F000430793CDF818804FF0A5
:10512000FF32A54BDDE90601FBF714FD002840F036
:10513000FB814FF0FF32A04BDDE90601FBF7ECFCF1
:10514000002840F0F1810022002340464946FBF749
:10515000D9FC10B12D2384F84330984B984ABAF10A
:10516000470F8CBF9046984603232BF0040223611F
:1051700022604FF00009009733460BAA21462846CB
:1051800000F0E2F9013040F093804FF0FF300DB0B5
:10519000BDE8F08F61684B1C4BF480623FD1062361
:1051A0006360002303930AAB029309AB009349ECBD
:1051B000108B0DF123032260CDF804A0616828460E
:1051C000FFF7ECFE0AF0DF03472B804609D1099B6D
:1051D000D81C02DB6268934257DDAAF1020A5FFA2B
:1051E0008AFABAF1650F099934D80139524604F1A7
:1051F00050000991FFF733FF0A9A8318012A81466C
:10520000236102DC2268D10701D5013323619DF8B7
:105210002330002BAFD02D2384F84330ABE7BAF115
:10522000670F02D0BAF1470FBBD189B100230393B6
:105230000AAB029309AB009349EC108B2260CDF8C6
:1052400004A00DF123032846FFF7A8FE8046BEE721
:105250000123A5E7BAF1660F19D1002963680CDDB7
:10526000216113B92268D20702D501330B442361AF
:10527000099BA3654FF00009C9E713B92268D0075D
:1052800001D50233F3E70123F1E74FF0670A099BE9
:105290000A9A934205DB22682361D107E8D50133DE
:1052A000E5E7002BD4BFC3F1020301231344DEE77B
:1052B00023685A0507D42369424631462846B84731
:1052C00001302BD161E7BAF1650F40F2E280002294
:1052D0000023D4E91201FBF70BFC00283CD001238A
:1052E000384A31462846B84701303FF44EAF0A9B52
:1052F000099A9A4202DB2368D8070FD5059B049AC6
:1053000031462846B84701303FF43FAF4FF0000820
:1053100004F11A090A9B013B984512DB23689B079D
:1053200009D54FF0000804F11909E3680B9A9B1A9C
:105330009845C0F2EE80E0680B9B9842B8BF1846D3
:1053400025E701234A4631462846B84701303FF455
:105350001CAF08F10108DDE7099B002B34DC0123B9
:10536000184A31462846B84701303FF40EAF099B32
:1053700023B90A9B13B92368D907CFD5059B049A93
:1053800031462846B84701303FF4FFAE4FF00009E0
:1053900004F11A0A099B5B42994501DB0A9B8BE7E2
:1053A0000123524631462846B84701303FF4EDAE5E
:1053B00009F10109EEE700BFFFFFEF7FBC790008AC
:1053C000C0790008CC7900080A9AA36D9A42A8BF58
:1053D0001A46002A914638DC04F11A034FF0000BFC
:1053E00029EAE9790693D4F858A0AAEB09039B456A
:1053F00033DB0A9B099A9A423ADB2368DA0737D4EF
:105400000A9B0999A3EB0A02A3EB01099145A8BFE6
:105410009146B9F1000F33DC4FF0000829EAE97931
:1054200004F11A0A099A0A9B9B1AA3EB09039845EF
:10543000BFF674AF0123524631462846B8470130C3
:105440003FF4A3AE08F10108ECE7134631464246AB
:105450002846B8470130BFD197E60123069A314666
:105460002846B84701303FF490AE0BF1010BBAE784
:10547000059B049A31462846B8470130C0D184E6DE
:105480004B4608EB0A0231462846B8470130C3D1E3
:105490007BE60A9A012A01DCDB0737D50123424665
:1054A00031462846B84701303FF46FAE059B049A59
:1054B00031462846B84701303FF467AE002200234A
:1054C000D4E91201FBF714FB58B14FF0000804F1C6
:1054D0001A0A0A9B013B98450DDB4B4604F150022A
:1054E000EBE60A9B08F10102013B31462846B8472A
:1054F0000130F2D149E60123524631462846B847E9
:1055000001303FF442AE08F10108E2E701234246D0
:10551000EBE701234A4631462846B84701303FF4BD
:1055200034AE08F1010800E742464B464046494682
:10553000FBF710FB00283FF42DAE014B014A0EE6AD
:10554000C4790008C87900082DE9F04791461F4644
:105550008A680B69DDF820809342B8BF1346C9F80A
:10556000003091F8432006460C4612B10133C9F8C9
:1055700000302368990642BFD9F800300233C9F8D9
:105580000030256815F0060507D104F1190AE36813
:10559000D9F800209B1A9D4229DB94F843302268F9
:1055A000003318BF012392062ED404F1430239467A
:1055B0003046C047013021D02368E568D9F8002083
:1055C00003F00603042B08BFAD1AA36822690CBFC1
:1055D00025EAE57500259342C4BF9B1AED184FF0EC
:1055E00000091A344D451BD10020BDE8F087012386
:1055F000524639463046C047013003D14FF0FF30A4
:10560000BDE8F0870135C2E7E1185A1C302081F867
:105610004300224494F8451082F843100233C4E753
:105620000123224639463046C0470130E6D009F111
:105630000109D7E72DE9F04317460A7E85B06E2AA7
:10564000984606460C460C9B01F1430E00F0BC80C8
:105650001AD8632A2ED00AD8002A00F0C880582A07
:1056600000F08A8004F1420584F842202AE0642A8E
:1056700001D0692AF6D121681A6811F0800F23D071
:10568000111D1960136827E0732A00F0B48008D850
:105690006F2A2AD0702AE5D10A6842F020020A60F7
:1056A00003E0752A21D0782ADCD1782284F84520BD
:1056B0006E4964E01A6801F14205111D1960136812
:1056C00084F842300123A3E011F0400F02F10401FD
:1056D0001960D7D0B2F90030002B03DA2D225B42DB
:1056E00084F8432062490A2217E02068196810F004
:1056F000800F03D0081D18600B6806E010F0400F03
:1057000001F104001860F7D00B8859496F2A14BFC3
:105710000A220822002084F843006568A560002D55
:10572000C0F29C80206820F004002060002B3FD154
:10573000002D40F095807546082A0BD12368DA07C2
:1057400008D5236962689A42DEBF302305F8013C20
:1057500005F1FF35AEEB05032361CDF800803B4634
:1057600003AA21463046FFF7EFFE013055D14FF036
:10577000FF3005B0BDE8F08381F845203C49226840
:10578000186812F0800F00F104051D6001D0036855
:1057900002E05506FBD50388D00744BF42F0200243
:1057A00022601BB9226822F0200222601022B1E799
:1057B0007546B3FBF2F002FB1033CB5C05F8013DFC
:1057C00003460028F5D1B7E708681A68496910F060
:1057D000800F04D0101D18601368196007E010F0E6
:1057E000400F02F1040018601368F6D019800023FE
:1057F00023617546B1E71A68111D19601568626862
:1058000000212846FAF704FD08B1401B6060636878
:105810002361002384F843309FE723692A463946F1
:105820003046C0470130A2D023689B0707D500252A
:1058300004F11909E368039A9B1A9D4205DBE068AD
:10584000039B9842B8BF184693E701234A4639465E
:105850003046C04701308AD00135EBE7002BA7D195
:105860000B7884F8423004F1420565E7DF790008DF
:10587000CE7900080FB40A4B13B51C6824B1A36994
:1058800013B9204600F0AAFE05AB049AA168019363
:10589000204601F003FB02B0BDE8104004B07047A1
:1058A000100000202DE9F74F03690C699C428046E7
:1058B00000F38280013C01F114074FEA840E00F1ED
:1058C000140657F8245056F8240006EB0E03013551
:1058D00007EB0E090193B0FBF5F595B34FF0000A05
:1058E0003846B446D34650F8042B93B205FB03A3C5
:1058F0004FEA134A9BB2ABEB0303120CBCF800B0A7
:1059000005FB02A213FA8BF34FEA124A1FFA82FB3D
:10591000DCF80020CBEB124202EB23429BB243EABD
:10592000024381454FEA224B4CF8043BDBD256F848
:105930000E3033B9019B043B9E421A4630D3C8F85F
:105940001040404601F0FFF8002825DB01353046C5
:105950004FF0000E57F8042BD0F800C093B2AEEB16
:105960000303120C13FA8CF3C2EB1C4202EB23422A
:105970009BB243EA0243B9454FEA224E40F8043B4A
:10598000E8D256F8242006EB84032AB9043B9E4251
:105990001A460BD3C8F81040284603B0BDE8F08F74
:1059A0001268043B002ACAD1013CC5E71268043BD7
:1059B000002AEFD1013CEAE70020EEE700000000FA
:1059C0002DE9F04F57EC106B97B0CDE90067466AB0
:1059D000079104460A920F93209D3EB9102000F0D3
:1059E00095FE6062466086600660C660636A1968FC
:1059F00051B15A684A60012393408B60204600F001
:105A0000CCFE636A00221A60019B002BBFBF0123FA
:105A10002B60019B23F00043B2BF019300232B6056
:105A2000DDF80480A84B33EA08031BD10F9A42F239
:105A30000F731360009B23B9C8F31300002800F014
:105A40007885219B53B9A14B21E0A14B02930833E8
:105A5000219A1360029817B0BDE8F08F9B4B029318
:105A60000333F5E7DDE900670022002330463946BD
:105A7000FBF73EF8814660B10F9A01231360219B2A
:105A8000002B00F05385934B219A1360013B029346
:105A9000E0E714AA15A947EC106B204601F0CBF8FB
:105AA000C8F30A558246002D7ED0C7F3130343F096
:105AB0007F51304641F44011A5F2FF35CDF84890B2
:105AC0000022854BFAF7F8FB79A3D3E90023FAF714
:105AD000A7FD79A3D3E90023FAF7F0FB0646284691
